{
  "_format": "hh-sol-artifact-1",
  "contractName": "HermesRouter02",
  "sourceName": "contracts/hermesswap/HermesRouter02.sol",
  "abi": [
    {
      "inputs": [
        {
          "internalType": "address",
          "name": "_factory",
          "type": "address"
        },
        {
          "internalType": "address",
          "name": "_WONE",
          "type": "address"
        }
      ],
      "stateMutability": "nonpayable",
      "type": "constructor"
    },
    {
      "inputs": [],
      "name": "WONE",
      "outputs": [
        {
          "internalType": "address",
          "name": "",
          "type": "address"
        }
      ],
      "stateMutability": "view",
      "type": "function"
    },
    {
      "inputs": [
        {
          "internalType": "address",
          "name": "tokenA",
          "type": "address"
        },
        {
          "internalType": "address",
          "name": "tokenB",
          "type": "address"
        },
        {
          "internalType": "uint256",
          "name": "amountADesired",
          "type": "uint256"
        },
        {
          "internalType": "uint256",
          "name": "amountBDesired",
          "type": "uint256"
        },
        {
          "internalType": "uint256",
          "name": "amountAMin",
          "type": "uint256"
        },
        {
          "internalType": "uint256",
          "name": "amountBMin",
          "type": "uint256"
        },
        {
          "internalType": "address",
          "name": "to",
          "type": "address"
        },
        {
          "internalType": "uint256",
          "name": "deadline",
          "type": "uint256"
        }
      ],
      "name": "addLiquidity",
      "outputs": [
        {
          "internalType": "uint256",
          "name": "amountA",
          "type": "uint256"
        },
        {
          "internalType": "uint256",
          "name": "amountB",
          "type": "uint256"
        },
        {
          "internalType": "uint256",
          "name": "liquidity",
          "type": "uint256"
        }
      ],
      "stateMutability": "nonpayable",
      "type": "function"
    },
    {
      "inputs": [
        {
          "internalType": "address",
          "name": "token",
          "type": "address"
        },
        {
          "internalType": "uint256",
          "name": "amountTokenDesired",
          "type": "uint256"
        },
        {
          "internalType": "uint256",
          "name": "amountTokenMin",
          "type": "uint256"
        },
        {
          "internalType": "uint256",
          "name": "amountONEMin",
          "type": "uint256"
        },
        {
          "internalType": "address",
          "name": "to",
          "type": "address"
        },
        {
          "internalType": "uint256",
          "name": "deadline",
          "type": "uint256"
        }
      ],
      "name": "addLiquidityONE",
      "outputs": [
        {
          "internalType": "uint256",
          "name": "amountToken",
          "type": "uint256"
        },
        {
          "internalType": "uint256",
          "name": "amountONE",
          "type": "uint256"
        },
        {
          "internalType": "uint256",
          "name": "liquidity",
          "type": "uint256"
        }
      ],
      "stateMutability": "payable",
      "type": "function"
    },
    {
      "inputs": [],
      "name": "factory",
      "outputs": [
        {
          "internalType": "address",
          "name": "",
          "type": "address"
        }
      ],
      "stateMutability": "view",
      "type": "function"
    },
    {
      "inputs": [
        {
          "internalType": "uint256",
          "name": "amountOut",
          "type": "uint256"
        },
        {
          "internalType": "uint256",
          "name": "reserveIn",
          "type": "uint256"
        },
        {
          "internalType": "uint256",
          "name": "reserveOut",
          "type": "uint256"
        }
      ],
      "name": "getAmountIn",
      "outputs": [
        {
          "internalType": "uint256",
          "name": "amountIn",
          "type": "uint256"
        }
      ],
      "stateMutability": "pure",
      "type": "function"
    },
    {
      "inputs": [
        {
          "internalType": "uint256",
          "name": "amountIn",
          "type": "uint256"
        },
        {
          "internalType": "uint256",
          "name": "reserveIn",
          "type": "uint256"
        },
        {
          "internalType": "uint256",
          "name": "reserveOut",
          "type": "uint256"
        }
      ],
      "name": "getAmountOut",
      "outputs": [
        {
          "internalType": "uint256",
          "name": "amountOut",
          "type": "uint256"
        }
      ],
      "stateMutability": "pure",
      "type": "function"
    },
    {
      "inputs": [
        {
          "internalType": "uint256",
          "name": "amountOut",
          "type": "uint256"
        },
        {
          "internalType": "address[]",
          "name": "path",
          "type": "address[]"
        }
      ],
      "name": "getAmountsIn",
      "outputs": [
        {
          "internalType": "uint256[]",
          "name": "amounts",
          "type": "uint256[]"
        }
      ],
      "stateMutability": "view",
      "type": "function"
    },
    {
      "inputs": [
        {
          "internalType": "uint256",
          "name": "amountIn",
          "type": "uint256"
        },
        {
          "internalType": "address[]",
          "name": "path",
          "type": "address[]"
        }
      ],
      "name": "getAmountsOut",
      "outputs": [
        {
          "internalType": "uint256[]",
          "name": "amounts",
          "type": "uint256[]"
        }
      ],
      "stateMutability": "view",
      "type": "function"
    },
    {
      "inputs": [
        {
          "internalType": "uint256",
          "name": "amountA",
          "type": "uint256"
        },
        {
          "internalType": "uint256",
          "name": "reserveA",
          "type": "uint256"
        },
        {
          "internalType": "uint256",
          "name": "reserveB",
          "type": "uint256"
        }
      ],
      "name": "quote",
      "outputs": [
        {
          "internalType": "uint256",
          "name": "amountB",
          "type": "uint256"
        }
      ],
      "stateMutability": "pure",
      "type": "function"
    },
    {
      "inputs": [
        {
          "internalType": "address",
          "name": "tokenA",
          "type": "address"
        },
        {
          "internalType": "address",
          "name": "tokenB",
          "type": "address"
        },
        {
          "internalType": "uint256",
          "name": "liquidity",
          "type": "uint256"
        },
        {
          "internalType": "uint256",
          "name": "amountAMin",
          "type": "uint256"
        },
        {
          "internalType": "uint256",
          "name": "amountBMin",
          "type": "uint256"
        },
        {
          "internalType": "address",
          "name": "to",
          "type": "address"
        },
        {
          "internalType": "uint256",
          "name": "deadline",
          "type": "uint256"
        }
      ],
      "name": "removeLiquidity",
      "outputs": [
        {
          "internalType": "uint256",
          "name": "amountA",
          "type": "uint256"
        },
        {
          "internalType": "uint256",
          "name": "amountB",
          "type": "uint256"
        }
      ],
      "stateMutability": "nonpayable",
      "type": "function"
    },
    {
      "inputs": [
        {
          "internalType": "address",
          "name": "token",
          "type": "address"
        },
        {
          "internalType": "uint256",
          "name": "liquidity",
          "type": "uint256"
        },
        {
          "internalType": "uint256",
          "name": "amountTokenMin",
          "type": "uint256"
        },
        {
          "internalType": "uint256",
          "name": "amountONEMin",
          "type": "uint256"
        },
        {
          "internalType": "address",
          "name": "to",
          "type": "address"
        },
        {
          "internalType": "uint256",
          "name": "deadline",
          "type": "uint256"
        }
      ],
      "name": "removeLiquidityONE",
      "outputs": [
        {
          "internalType": "uint256",
          "name": "amountToken",
          "type": "uint256"
        },
        {
          "internalType": "uint256",
          "name": "amountONE",
          "type": "uint256"
        }
      ],
      "stateMutability": "nonpayable",
      "type": "function"
    },
    {
      "inputs": [
        {
          "internalType": "address",
          "name": "token",
          "type": "address"
        },
        {
          "internalType": "uint256",
          "name": "liquidity",
          "type": "uint256"
        },
        {
          "internalType": "uint256",
          "name": "amountTokenMin",
          "type": "uint256"
        },
        {
          "internalType": "uint256",
          "name": "amountONEMin",
          "type": "uint256"
        },
        {
          "internalType": "address",
          "name": "to",
          "type": "address"
        },
        {
          "internalType": "uint256",
          "name": "deadline",
          "type": "uint256"
        }
      ],
      "name": "removeLiquidityONESupportingFeeOnTransferTokens",
      "outputs": [
        {
          "internalType": "uint256",
          "name": "amountONE",
          "type": "uint256"
        }
      ],
      "stateMutability": "nonpayable",
      "type": "function"
    },
    {
      "inputs": [
        {
          "internalType": "address",
          "name": "token",
          "type": "address"
        },
        {
          "internalType": "uint256",
          "name": "liquidity",
          "type": "uint256"
        },
        {
          "internalType": "uint256",
          "name": "amountTokenMin",
          "type": "uint256"
        },
        {
          "internalType": "uint256",
          "name": "amountONEMin",
          "type": "uint256"
        },
        {
          "internalType": "address",
          "name": "to",
          "type": "address"
        },
        {
          "internalType": "uint256",
          "name": "deadline",
          "type": "uint256"
        },
        {
          "internalType": "bool",
          "name": "approveMax",
          "type": "bool"
        },
        {
          "internalType": "uint8",
          "name": "v",
          "type": "uint8"
        },
        {
          "internalType": "bytes32",
          "name": "r",
          "type": "bytes32"
        },
        {
          "internalType": "bytes32",
          "name": "s",
          "type": "bytes32"
        }
      ],
      "name": "removeLiquidityONEWithPermit",
      "outputs": [
        {
          "internalType": "uint256",
          "name": "amountToken",
          "type": "uint256"
        },
        {
          "internalType": "uint256",
          "name": "amountONE",
          "type": "uint256"
        }
      ],
      "stateMutability": "nonpayable",
      "type": "function"
    },
    {
      "inputs": [
        {
          "internalType": "address",
          "name": "token",
          "type": "address"
        },
        {
          "internalType": "uint256",
          "name": "liquidity",
          "type": "uint256"
        },
        {
          "internalType": "uint256",
          "name": "amountTokenMin",
          "type": "uint256"
        },
        {
          "internalType": "uint256",
          "name": "amountONEMin",
          "type": "uint256"
        },
        {
          "internalType": "address",
          "name": "to",
          "type": "address"
        },
        {
          "internalType": "uint256",
          "name": "deadline",
          "type": "uint256"
        },
        {
          "internalType": "bool",
          "name": "approveMax",
          "type": "bool"
        },
        {
          "internalType": "uint8",
          "name": "v",
          "type": "uint8"
        },
        {
          "internalType": "bytes32",
          "name": "r",
          "type": "bytes32"
        },
        {
          "internalType": "bytes32",
          "name": "s",
          "type": "bytes32"
        }
      ],
      "name": "removeLiquidityONEWithPermitSupportingFeeOnTransferTokens",
      "outputs": [
        {
          "internalType": "uint256",
          "name": "amountONE",
          "type": "uint256"
        }
      ],
      "stateMutability": "nonpayable",
      "type": "function"
    },
    {
      "inputs": [
        {
          "internalType": "address",
          "name": "tokenA",
          "type": "address"
        },
        {
          "internalType": "address",
          "name": "tokenB",
          "type": "address"
        },
        {
          "internalType": "uint256",
          "name": "liquidity",
          "type": "uint256"
        },
        {
          "internalType": "uint256",
          "name": "amountAMin",
          "type": "uint256"
        },
        {
          "internalType": "uint256",
          "name": "amountBMin",
          "type": "uint256"
        },
        {
          "internalType": "address",
          "name": "to",
          "type": "address"
        },
        {
          "internalType": "uint256",
          "name": "deadline",
          "type": "uint256"
        },
        {
          "internalType": "bool",
          "name": "approveMax",
          "type": "bool"
        },
        {
          "internalType": "uint8",
          "name": "v",
          "type": "uint8"
        },
        {
          "internalType": "bytes32",
          "name": "r",
          "type": "bytes32"
        },
        {
          "internalType": "bytes32",
          "name": "s",
          "type": "bytes32"
        }
      ],
      "name": "removeLiquidityWithPermit",
      "outputs": [
        {
          "internalType": "uint256",
          "name": "amountA",
          "type": "uint256"
        },
        {
          "internalType": "uint256",
          "name": "amountB",
          "type": "uint256"
        }
      ],
      "stateMutability": "nonpayable",
      "type": "function"
    },
    {
      "inputs": [
        {
          "internalType": "uint256",
          "name": "amountOutMin",
          "type": "uint256"
        },
        {
          "internalType": "address[]",
          "name": "path",
          "type": "address[]"
        },
        {
          "internalType": "address",
          "name": "to",
          "type": "address"
        },
        {
          "internalType": "uint256",
          "name": "deadline",
          "type": "uint256"
        }
      ],
      "name": "swapExactONEForTokens",
      "outputs": [
        {
          "internalType": "uint256[]",
          "name": "amounts",
          "type": "uint256[]"
        }
      ],
      "stateMutability": "payable",
      "type": "function"
    },
    {
      "inputs": [
        {
          "internalType": "uint256",
          "name": "amountOutMin",
          "type": "uint256"
        },
        {
          "internalType": "address[]",
          "name": "path",
          "type": "address[]"
        },
        {
          "internalType": "address",
          "name": "to",
          "type": "address"
        },
        {
          "internalType": "uint256",
          "name": "deadline",
          "type": "uint256"
        }
      ],
      "name": "swapExactONEForTokensSupportingFeeOnTransferTokens",
      "outputs": [],
      "stateMutability": "payable",
      "type": "function"
    },
    {
      "inputs": [
        {
          "internalType": "uint256",
          "name": "amountIn",
          "type": "uint256"
        },
        {
          "internalType": "uint256",
          "name": "amountOutMin",
          "type": "uint256"
        },
        {
          "internalType": "address[]",
          "name": "path",
          "type": "address[]"
        },
        {
          "internalType": "address",
          "name": "to",
          "type": "address"
        },
        {
          "internalType": "uint256",
          "name": "deadline",
          "type": "uint256"
        }
      ],
      "name": "swapExactTokensForONE",
      "outputs": [
        {
          "internalType": "uint256[]",
          "name": "amounts",
          "type": "uint256[]"
        }
      ],
      "stateMutability": "nonpayable",
      "type": "function"
    },
    {
      "inputs": [
        {
          "internalType": "uint256",
          "name": "amountIn",
          "type": "uint256"
        },
        {
          "internalType": "uint256",
          "name": "amountOutMin",
          "type": "uint256"
        },
        {
          "internalType": "address[]",
          "name": "path",
          "type": "address[]"
        },
        {
          "internalType": "address",
          "name": "to",
          "type": "address"
        },
        {
          "internalType": "uint256",
          "name": "deadline",
          "type": "uint256"
        }
      ],
      "name": "swapExactTokensForONESupportingFeeOnTransferTokens",
      "outputs": [],
      "stateMutability": "nonpayable",
      "type": "function"
    },
    {
      "inputs": [
        {
          "internalType": "uint256",
          "name": "amountIn",
          "type": "uint256"
        },
        {
          "internalType": "uint256",
          "name": "amountOutMin",
          "type": "uint256"
        },
        {
          "internalType": "address[]",
          "name": "path",
          "type": "address[]"
        },
        {
          "internalType": "address",
          "name": "to",
          "type": "address"
        },
        {
          "internalType": "uint256",
          "name": "deadline",
          "type": "uint256"
        }
      ],
      "name": "swapExactTokensForTokens",
      "outputs": [
        {
          "internalType": "uint256[]",
          "name": "amounts",
          "type": "uint256[]"
        }
      ],
      "stateMutability": "nonpayable",
      "type": "function"
    },
    {
      "inputs": [
        {
          "internalType": "uint256",
          "name": "amountIn",
          "type": "uint256"
        },
        {
          "internalType": "uint256",
          "name": "amountOutMin",
          "type": "uint256"
        },
        {
          "internalType": "address[]",
          "name": "path",
          "type": "address[]"
        },
        {
          "internalType": "address",
          "name": "to",
          "type": "address"
        },
        {
          "internalType": "uint256",
          "name": "deadline",
          "type": "uint256"
        }
      ],
      "name": "swapExactTokensForTokensSupportingFeeOnTransferTokens",
      "outputs": [],
      "stateMutability": "nonpayable",
      "type": "function"
    },
    {
      "inputs": [
        {
          "internalType": "uint256",
          "name": "amountOut",
          "type": "uint256"
        },
        {
          "internalType": "address[]",
          "name": "path",
          "type": "address[]"
        },
        {
          "internalType": "address",
          "name": "to",
          "type": "address"
        },
        {
          "internalType": "uint256",
          "name": "deadline",
          "type": "uint256"
        }
      ],
      "name": "swapONEForExactTokens",
      "outputs": [
        {
          "internalType": "uint256[]",
          "name": "amounts",
          "type": "uint256[]"
        }
      ],
      "stateMutability": "payable",
      "type": "function"
    },
    {
      "inputs": [
        {
          "internalType": "uint256",
          "name": "amountOut",
          "type": "uint256"
        },
        {
          "internalType": "uint256",
          "name": "amountInMax",
          "type": "uint256"
        },
        {
          "internalType": "address[]",
          "name": "path",
          "type": "address[]"
        },
        {
          "internalType": "address",
          "name": "to",
          "type": "address"
        },
        {
          "internalType": "uint256",
          "name": "deadline",
          "type": "uint256"
        }
      ],
      "name": "swapTokensForExactONE",
      "outputs": [
        {
          "internalType": "uint256[]",
          "name": "amounts",
          "type": "uint256[]"
        }
      ],
      "stateMutability": "nonpayable",
      "type": "function"
    },
    {
      "inputs": [
        {
          "internalType": "uint256",
          "name": "amountOut",
          "type": "uint256"
        },
        {
          "internalType": "uint256",
          "name": "amountInMax",
          "type": "uint256"
        },
        {
          "internalType": "address[]",
          "name": "path",
          "type": "address[]"
        },
        {
          "internalType": "address",
          "name": "to",
          "type": "address"
        },
        {
          "internalType": "uint256",
          "name": "deadline",
          "type": "uint256"
        }
      ],
      "name": "swapTokensForExactTokens",
      "outputs": [
        {
          "internalType": "uint256[]",
          "name": "amounts",
          "type": "uint256[]"
        }
      ],
      "stateMutability": "nonpayable",
      "type": "function"
    },
    {
      "stateMutability": "payable",
      "type": "receive"
    }
  ],
  "bytecode": "0x60c060405234801561001057600080fd5b50604051620046cc380380620046cc8339818101604052604081101561003557600080fd5b5080516020909101516001600160601b0319606092831b8116608052911b1660a05260805160601c60a05160601c614547620001856000398061015f5280610cf45280610e3a5280610ec252806110ad5280611103528061113752806111ab528061143b5280611644528061174f528061180352806118d652806119115280611b3c5280611c5f5280611d39528061212d528061229352806123bd528061245252806124c6528061295f52806129da5280612b0a5280612c4d5280612cd5525080610d875280610ef4528061102f52806110e152806112fb52806114c952806115a052806119ee5280611beb528061202f52806121bb528061227152806124f85280612743528061293b528061298852806129b85280612b9d5280612d075280612e9e5280613301528061334452806135d7528061369052806137435280613c6e5280613de452506145476000f3fe60806040526004361061014f5760003560e01c80638803dbee116100b6578063c45a01551161006f578063c45a015514610a43578063c936a9c114610a74578063d06ca61f14610a89578063d972839514610b3e578063dbaad71914610bb1578063e8e3370014610c3557610188565b80638803dbee1461078d5780639a6bb5e614610823578063a2ee4555146108b9578063a4afcfe01461092c578063ad615dec146109b0578063baa2abde146109e657610188565b80632a1620fd116101085780632a1620fd146104ef57806333121fdf1461054257806338ed1739146105955780634359578c1461062b5780635c11d795146106c157806385f8c2591461075757610188565b8063054d50d41461018d5780630cc46022146101d55780631f00ca74146102a95780631f1e7f6a1461035e5780632195995c146103c257806329d548171461045957610188565b3661018857336001600160a01b037f0000000000000000000000000000000000000000000000000000000000000000161461018657fe5b005b600080fd5b34801561019957600080fd5b506101c3600480360360608110156101b057600080fd5b5080359060208101359060400135610c97565b60408051918252519081900360200190f35b610259600480360360808110156101eb57600080fd5b81359190810190604081016020820135600160201b81111561020c57600080fd5b82018360208201111561021e57600080fd5b803590602001918460208302840111600160201b8311171561023f57600080fd5b91935091506001600160a01b038135169060200135610cac565b60408051602080825283518183015283519192839290830191858101910280838360005b8381101561029557818101518382015260200161027d565b505050509050019250505060405180910390f35b3480156102b557600080fd5b50610259600480360360408110156102cc57600080fd5b81359190810190604081016020820135600160201b8111156102ed57600080fd5b8201836020820111156102ff57600080fd5b803590602001918460208302840111600160201b8311171561032057600080fd5b919080806020026020016040519081016040528093929190818152602001838360200280828437600092019190915250929550611028945050505050565b6103a4600480360360c081101561037457600080fd5b506001600160a01b0381358116916020810135916040820135916060810135916080820135169060a0013561105e565b60408051938452602084019290925282820152519081900360600190f35b3480156103ce57600080fd5b5061044060048036036101608110156103e657600080fd5b506001600160a01b038135811691602081013582169160408201359160608101359160808201359160a08101359091169060c08101359060e081013515159060ff61010082013516906101208101359061014001356112f1565b6040805192835260208301919091528051918290030190f35b34801561046557600080fd5b50610259600480360360a081101561047c57600080fd5b813591602081013591810190606081016040820135600160201b8111156104a257600080fd5b8201836020820111156104b457600080fd5b803590602001918460208302840111600160201b831117156104d557600080fd5b91935091506001600160a01b0381351690602001356113eb565b3480156104fb57600080fd5b506101c3600480360360c081101561051257600080fd5b506001600160a01b0381358116916020810135916040820135916060810135916080820135169060a00135611703565b34801561054e57600080fd5b50610440600480360360c081101561056557600080fd5b506001600160a01b0381358116916020810135916040820135916060810135916080820135169060a00135611889565b3480156105a157600080fd5b50610259600480360360a08110156105b857600080fd5b813591602081013591810190606081016040820135600160201b8111156105de57600080fd5b8201836020820111156105f057600080fd5b803590602001918460208302840111600160201b8311171561061157600080fd5b91935091506001600160a01b0381351690602001356119a3565b34801561063757600080fd5b50610186600480360360a081101561064e57600080fd5b813591602081013591810190606081016040820135600160201b81111561067457600080fd5b82018360208201111561068657600080fd5b803590602001918460208302840111600160201b831117156106a757600080fd5b91935091506001600160a01b038135169060200135611aee565b3480156106cd57600080fd5b50610186600480360360a08110156106e457600080fd5b813591602081013591810190606081016040820135600160201b81111561070a57600080fd5b82018360208201111561071c57600080fd5b803590602001918460208302840111600160201b8311171561073d57600080fd5b91935091506001600160a01b038135169060200135611dc9565b34801561076357600080fd5b506101c36004803603606081101561077a57600080fd5b5080359060208101359060400135611fd7565b34801561079957600080fd5b50610259600480360360a08110156107b057600080fd5b813591602081013591810190606081016040820135600160201b8111156107d657600080fd5b8201836020820111156107e857600080fd5b803590602001918460208302840111600160201b8311171561080957600080fd5b91935091506001600160a01b038135169060200135611fe4565b34801561082f57600080fd5b50610259600480360360a081101561084657600080fd5b813591602081013591810190606081016040820135600160201b81111561086c57600080fd5b82018360208201111561087e57600080fd5b803590602001918460208302840111600160201b8311171561089f57600080fd5b91935091506001600160a01b0381351690602001356120dd565b3480156108c557600080fd5b506101c360048036036101408110156108dd57600080fd5b506001600160a01b0381358116916020810135916040820135916060810135916080820135169060a08101359060c081013515159060ff60e08201351690610100810135906101200135612269565b6101866004803603608081101561094257600080fd5b81359190810190604081016020820135600160201b81111561096357600080fd5b82018360208201111561097557600080fd5b803590602001918460208302840111600160201b8311171561099657600080fd5b91935091506001600160a01b038135169060200135612377565b3480156109bc57600080fd5b506101c3600480360360608110156109d357600080fd5b50803590602081013590604001356126e8565b3480156109f257600080fd5b50610440600480360360e0811015610a0957600080fd5b506001600160a01b038135811691602081013582169160408201359160608101359160808201359160a08101359091169060c001356126f5565b348015610a4f57600080fd5b50610a58612939565b604080516001600160a01b039092168252519081900360200190f35b348015610a8057600080fd5b50610a5861295d565b348015610a9557600080fd5b5061025960048036036040811015610aac57600080fd5b81359190810190604081016020820135600160201b811115610acd57600080fd5b820183602082011115610adf57600080fd5b803590602001918460208302840111600160201b83111715610b0057600080fd5b919080806020026020016040519081016040528093929190818152602001838360200280828437600092019190915250929550612981945050505050565b348015610b4a57600080fd5b506104406004803603610140811015610b6257600080fd5b506001600160a01b0381358116916020810135916040820135916060810135916080820135169060a08101359060c081013515159060ff60e082013516906101008101359061012001356129ae565b61025960048036036080811015610bc757600080fd5b81359190810190604081016020820135600160201b811115610be857600080fd5b820183602082011115610bfa57600080fd5b803590602001918460208302840111600160201b83111715610c1b57600080fd5b91935091506001600160a01b038135169060200135612ac2565b348015610c4157600080fd5b506103a46004803603610100811015610c5957600080fd5b506001600160a01b038135811691602081013582169160408201359160608101359160808201359160a08101359160c0820135169060e00135612e3b565b6000610ca4848484612f6e565b949350505050565b60608142811015610cf2576040805162461bcd60e51b815260206004820152601560248201526000805160206144f2833981519152604482015290519081900360640190fd5b7f00000000000000000000000000000000000000000000000000000000000000006001600160a01b031686866000818110610d2957fe5b905060200201356001600160a01b03166001600160a01b031614610d82576040805162461bcd60e51b815260206004820152601a6024820152600080516020614466833981519152604482015290519081900360640190fd5b610de07f00000000000000000000000000000000000000000000000000000000000000003488888080602002602001604051908101604052809392919081815260200183836020028082843760009201919091525061304692505050565b91508682600184510381518110610df357fe5b60200260200101511015610e385760405162461bcd60e51b81526004018080602001828103825260288152602001806143f96028913960400191505060405180910390fd5b7f00000000000000000000000000000000000000000000000000000000000000006001600160a01b031663d0e30db083600081518110610e7457fe5b60200260200101516040518263ffffffff1660e01b81526004016000604051808303818588803b158015610ea757600080fd5b505af1158015610ebb573d6000803e3d6000fd5b50505050507f00000000000000000000000000000000000000000000000000000000000000006001600160a01b031663a9059cbb610f527f000000000000000000000000000000000000000000000000000000000000000089896000818110610f2057fe5b905060200201356001600160a01b03168a8a6001818110610f3d57fe5b905060200201356001600160a01b0316613192565b84600081518110610f5f57fe5b60200260200101516040518363ffffffff1660e01b815260040180836001600160a01b0316815260200182815260200192505050602060405180830381600087803b158015610fad57600080fd5b505af1158015610fc1573d6000803e3d6000fd5b505050506040513d6020811015610fd757600080fd5b5051610fdf57fe5b61101e82878780806020026020016040519081016040528093929190818152602001838360200280828437600092019190915250899250613252915050565b5095945050505050565b60606110557f0000000000000000000000000000000000000000000000000000000000000000848461348f565b90505b92915050565b600080600083428110156110a7576040805162461bcd60e51b815260206004820152601560248201526000805160206144f2833981519152604482015290519081900360640190fd5b6110d58a7f00000000000000000000000000000000000000000000000000000000000000008b348c8c6135c7565b909450925060006111277f00000000000000000000000000000000000000000000000000000000000000008c7f0000000000000000000000000000000000000000000000000000000000000000613192565b90506111358b338388613858565b7f00000000000000000000000000000000000000000000000000000000000000006001600160a01b031663d0e30db0856040518263ffffffff1660e01b81526004016000604051808303818588803b15801561119057600080fd5b505af11580156111a4573d6000803e3d6000fd5b50505050507f00000000000000000000000000000000000000000000000000000000000000006001600160a01b031663a9059cbb82866040518363ffffffff1660e01b815260040180836001600160a01b0316815260200182815260200192505050602060405180830381600087803b15801561122057600080fd5b505af1158015611234573d6000803e3d6000fd5b505050506040513d602081101561124a57600080fd5b505161125257fe5b806001600160a01b0316636a627842886040518263ffffffff1660e01b815260040180826001600160a01b03168152602001915050602060405180830381600087803b1580156112a157600080fd5b505af11580156112b5573d6000803e3d6000fd5b505050506040513d60208110156112cb57600080fd5b50519250348410156112e3576112e3338534036139b5565b505096509650969350505050565b60008060006113217f00000000000000000000000000000000000000000000000000000000000000008f8f613192565b9050600087611330578c611334565b6000195b6040805163d505accf60e01b815233600482015230602482015260448101839052606481018c905260ff8a16608482015260a4810189905260c4810188905290519192506001600160a01b0384169163d505accf9160e48082019260009290919082900301818387803b1580156113aa57600080fd5b505af11580156113be573d6000803e3d6000fd5b505050506113d18f8f8f8f8f8f8f6126f5565b809450819550505050509b509b9950505050505050505050565b60608142811015611431576040805162461bcd60e51b815260206004820152601560248201526000805160206144f2833981519152604482015290519081900360640190fd5b6001600160a01b037f0000000000000000000000000000000000000000000000000000000000000000168686600019810181811061146b57fe5b905060200201356001600160a01b03166001600160a01b0316146114c4576040805162461bcd60e51b815260206004820152601a6024820152600080516020614466833981519152604482015290519081900360640190fd5b6115227f00000000000000000000000000000000000000000000000000000000000000008988888080602002602001604051908101604052809392919081815260200183836020028082843760009201919091525061304692505050565b9150868260018451038151811061153557fe5b6020026020010151101561157a5760405162461bcd60e51b81526004018080602001828103825260288152602001806143f96028913960400191505060405180910390fd5b6116038686600081811061158a57fe5b905060200201356001600160a01b0316336115e97f00000000000000000000000000000000000000000000000000000000000000008a8a60008181106115cc57fe5b905060200201356001600160a01b03168b8b6001818110610f3d57fe5b856000815181106115f657fe5b6020026020010151613858565b61164282878780806020026020016040519081016040528093929190818152602001838360200280828437600092019190915250309250613252915050565b7f00000000000000000000000000000000000000000000000000000000000000006001600160a01b0316632e1a7d4d8360018551038151811061168157fe5b60200260200101516040518263ffffffff1660e01b815260040180828152602001915050600060405180830381600087803b1580156116bf57600080fd5b505af11580156116d3573d6000803e3d6000fd5b505050506116f884836001855103815181106116eb57fe5b60200260200101516139b5565b509695505050505050565b60008142811015611749576040805162461bcd60e51b815260206004820152601560248201526000805160206144f2833981519152604482015290519081900360640190fd5b611778887f000000000000000000000000000000000000000000000000000000000000000089898930896126f5565b90508092505061180188858a6001600160a01b03166370a08231306040518263ffffffff1660e01b815260040180826001600160a01b0316815260200191505060206040518083038186803b1580156117d057600080fd5b505afa1580156117e4573d6000803e3d6000fd5b505050506040513d60208110156117fa57600080fd5b5051613aad565b7f00000000000000000000000000000000000000000000000000000000000000006001600160a01b0316632e1a7d4d836040518263ffffffff1660e01b815260040180828152602001915050600060405180830381600087803b15801561186757600080fd5b505af115801561187b573d6000803e3d6000fd5b505050506116f884836139b5565b60008082428110156118d0576040805162461bcd60e51b815260206004820152601560248201526000805160206144f2833981519152604482015290519081900360640190fd5b6118ff897f00000000000000000000000000000000000000000000000000000000000000008a8a8a308a6126f5565b909350915061190f898685613aad565b7f00000000000000000000000000000000000000000000000000000000000000006001600160a01b0316632e1a7d4d836040518263ffffffff1660e01b815260040180828152602001915050600060405180830381600087803b15801561197557600080fd5b505af1158015611989573d6000803e3d6000fd5b5050505061199785836139b5565b50965096945050505050565b606081428110156119e9576040805162461bcd60e51b815260206004820152601560248201526000805160206144f2833981519152604482015290519081900360640190fd5b611a477f00000000000000000000000000000000000000000000000000000000000000008988888080602002602001604051908101604052809392919081815260200183836020028082843760009201919091525061304692505050565b91508682600184510381518110611a5a57fe5b60200260200101511015611a9f5760405162461bcd60e51b81526004018080602001828103825260288152602001806143f96028913960400191505060405180910390fd5b611aaf8686600081811061158a57fe5b6116f882878780806020026020016040519081016040528093929190818152602001838360200280828437600092019190915250899250613252915050565b8042811015611b32576040805162461bcd60e51b815260206004820152601560248201526000805160206144f2833981519152604482015290519081900360640190fd5b6001600160a01b037f00000000000000000000000000000000000000000000000000000000000000001685856000198101818110611b6c57fe5b905060200201356001600160a01b03166001600160a01b031614611bc5576040805162461bcd60e51b815260206004820152601a6024820152600080516020614466833981519152604482015290519081900360640190fd5b611c1d85856000818110611bd557fe5b905060200201356001600160a01b031633611c177f000000000000000000000000000000000000000000000000000000000000000089896000818110610f2057fe5b8a613858565b611c5b858580806020026020016040519081016040528093929190818152602001838360200280828437600092019190915250309250613c17915050565b60007f00000000000000000000000000000000000000000000000000000000000000006001600160a01b03166370a08231306040518263ffffffff1660e01b815260040180826001600160a01b0316815260200191505060206040518083038186803b158015611cca57600080fd5b505afa158015611cde573d6000803e3d6000fd5b505050506040513d6020811015611cf457600080fd5b5051905086811015611d375760405162461bcd60e51b81526004018080602001828103825260288152602001806143f96028913960400191505060405180910390fd5b7f00000000000000000000000000000000000000000000000000000000000000006001600160a01b0316632e1a7d4d826040518263ffffffff1660e01b815260040180828152602001915050600060405180830381600087803b158015611d9d57600080fd5b505af1158015611db1573d6000803e3d6000fd5b50505050611dbf84826139b5565b5050505050505050565b8042811015611e0d576040805162461bcd60e51b815260206004820152601560248201526000805160206144f2833981519152604482015290519081900360640190fd5b611e1d85856000818110611bd557fe5b600085856000198101818110611e2f57fe5b905060200201356001600160a01b03166001600160a01b03166370a08231856040518263ffffffff1660e01b815260040180826001600160a01b0316815260200191505060206040518083038186803b158015611e8b57600080fd5b505afa158015611e9f573d6000803e3d6000fd5b505050506040513d6020811015611eb557600080fd5b50516040805160208881028281018201909352888252929350611ef7929091899189918291850190849080828437600092019190915250889250613c17915050565b86611f9a8288886000198101818110611f0c57fe5b905060200201356001600160a01b03166001600160a01b03166370a08231886040518263ffffffff1660e01b815260040180826001600160a01b0316815260200191505060206040518083038186803b158015611f6857600080fd5b505afa158015611f7c573d6000803e3d6000fd5b505050506040513d6020811015611f9257600080fd5b505190613f19565b1015611dbf5760405162461bcd60e51b81526004018080602001828103825260288152602001806143f96028913960400191505060405180910390fd5b6000610ca4848484613f69565b6060814281101561202a576040805162461bcd60e51b815260206004820152601560248201526000805160206144f2833981519152604482015290519081900360640190fd5b6120887f00000000000000000000000000000000000000000000000000000000000000008988888080602002602001604051908101604052809392919081815260200183836020028082843760009201919091525061348f92505050565b9150868260008151811061209857fe5b60200260200101511115611a9f5760405162461bcd60e51b81526004018080602001828103825260248152602001806143626024913960400191505060405180910390fd5b60608142811015612123576040805162461bcd60e51b815260206004820152601560248201526000805160206144f2833981519152604482015290519081900360640190fd5b6001600160a01b037f0000000000000000000000000000000000000000000000000000000000000000168686600019810181811061215d57fe5b905060200201356001600160a01b03166001600160a01b0316146121b6576040805162461bcd60e51b815260206004820152601a6024820152600080516020614466833981519152604482015290519081900360640190fd5b6122147f00000000000000000000000000000000000000000000000000000000000000008988888080602002602001604051908101604052809392919081815260200183836020028082843760009201919091525061348f92505050565b9150868260008151811061222457fe5b6020026020010151111561157a5760405162461bcd60e51b81526004018080602001828103825260248152602001806143626024913960400191505060405180910390fd5b6000806122b77f00000000000000000000000000000000000000000000000000000000000000008d7f0000000000000000000000000000000000000000000000000000000000000000613192565b90506000866122c6578b6122ca565b6000195b6040805163d505accf60e01b815233600482015230602482015260448101839052606481018b905260ff8916608482015260a4810188905260c4810187905290519192506001600160a01b0384169163d505accf9160e48082019260009290919082900301818387803b15801561234057600080fd5b505af1158015612354573d6000803e3d6000fd5b505050506123668d8d8d8d8d8d611703565b9d9c50505050505050505050505050565b80428110156123bb576040805162461bcd60e51b815260206004820152601560248201526000805160206144f2833981519152604482015290519081900360640190fd5b7f00000000000000000000000000000000000000000000000000000000000000006001600160a01b0316858560008181106123f257fe5b905060200201356001600160a01b03166001600160a01b03161461244b576040805162461bcd60e51b815260206004820152601a6024820152600080516020614466833981519152604482015290519081900360640190fd5b60003490507f00000000000000000000000000000000000000000000000000000000000000006001600160a01b031663d0e30db0826040518263ffffffff1660e01b81526004016000604051808303818588803b1580156124ab57600080fd5b505af11580156124bf573d6000803e3d6000fd5b50505050507f00000000000000000000000000000000000000000000000000000000000000006001600160a01b031663a9059cbb6125247f000000000000000000000000000000000000000000000000000000000000000089896000818110610f2057fe5b836040518363ffffffff1660e01b815260040180836001600160a01b0316815260200182815260200192505050602060405180830381600087803b15801561256b57600080fd5b505af115801561257f573d6000803e3d6000fd5b505050506040513d602081101561259557600080fd5b505161259d57fe5b6000868660001981018181106125af57fe5b905060200201356001600160a01b03166001600160a01b03166370a08231866040518263ffffffff1660e01b815260040180826001600160a01b0316815260200191505060206040518083038186803b15801561260b57600080fd5b505afa15801561261f573d6000803e3d6000fd5b505050506040513d602081101561263557600080fd5b505160408051602089810282810182019093528982529293506126779290918a918a918291850190849080828437600092019190915250899250613c17915050565b87611f9a828989600019810181811061268c57fe5b905060200201356001600160a01b03166001600160a01b03166370a08231896040518263ffffffff1660e01b815260040180826001600160a01b0316815260200191505060206040518083038186803b158015611f6857600080fd5b6000610ca4848484614041565b600080824281101561273c576040805162461bcd60e51b815260206004820152601560248201526000805160206144f2833981519152604482015290519081900360640190fd5b60006127697f00000000000000000000000000000000000000000000000000000000000000008c8c613192565b604080516323b872dd60e01b81523360048201526001600160a01b03831660248201819052604482018d9052915192935090916323b872dd916064808201926020929091908290030181600087803b1580156127c457600080fd5b505af11580156127d8573d6000803e3d6000fd5b505050506040513d60208110156127ee57600080fd5b50506040805163226bf2d160e21b81526001600160a01b03888116600483015282516000938493928616926389afcb44926024808301939282900301818787803b15801561283b57600080fd5b505af115801561284f573d6000803e3d6000fd5b505050506040513d604081101561286557600080fd5b5080516020909101519092509050600061287f8e8e6140e7565b509050806001600160a01b03168e6001600160a01b0316146128a25781836128a5565b82825b90975095508a8710156128e95760405162461bcd60e51b81526004018080602001828103825260238152602001806144216023913960400191505060405180910390fd5b898610156129285760405162461bcd60e51b815260040180806020018281038252602381526020018061433f6023913960400191505060405180910390fd5b505050505097509795505050505050565b7f000000000000000000000000000000000000000000000000000000000000000081565b7f000000000000000000000000000000000000000000000000000000000000000081565b60606110557f00000000000000000000000000000000000000000000000000000000000000008484613046565b60008060006129fe7f00000000000000000000000000000000000000000000000000000000000000008e7f0000000000000000000000000000000000000000000000000000000000000000613192565b9050600087612a0d578c612a11565b6000195b6040805163d505accf60e01b815233600482015230602482015260448101839052606481018c905260ff8a16608482015260a4810189905260c4810188905290519192506001600160a01b0384169163d505accf9160e48082019260009290919082900301818387803b158015612a8757600080fd5b505af1158015612a9b573d6000803e3d6000fd5b50505050612aad8e8e8e8e8e8e611889565b909f909e509c50505050505050505050505050565b60608142811015612b08576040805162461bcd60e51b815260206004820152601560248201526000805160206144f2833981519152604482015290519081900360640190fd5b7f00000000000000000000000000000000000000000000000000000000000000006001600160a01b031686866000818110612b3f57fe5b905060200201356001600160a01b03166001600160a01b031614612b98576040805162461bcd60e51b815260206004820152601a6024820152600080516020614466833981519152604482015290519081900360640190fd5b612bf67f00000000000000000000000000000000000000000000000000000000000000008888888080602002602001604051908101604052809392919081815260200183836020028082843760009201919091525061348f92505050565b91503482600081518110612c0657fe5b60200260200101511115612c4b5760405162461bcd60e51b81526004018080602001828103825260248152602001806143626024913960400191505060405180910390fd5b7f00000000000000000000000000000000000000000000000000000000000000006001600160a01b031663d0e30db083600081518110612c8757fe5b60200260200101516040518263ffffffff1660e01b81526004016000604051808303818588803b158015612cba57600080fd5b505af1158015612cce573d6000803e3d6000fd5b50505050507f00000000000000000000000000000000000000000000000000000000000000006001600160a01b031663a9059cbb612d337f000000000000000000000000000000000000000000000000000000000000000089896000818110610f2057fe5b84600081518110612d4057fe5b60200260200101516040518363ffffffff1660e01b815260040180836001600160a01b0316815260200182815260200192505050602060405180830381600087803b158015612d8e57600080fd5b505af1158015612da2573d6000803e3d6000fd5b505050506040513d6020811015612db857600080fd5b5051612dc057fe5b612dff82878780806020026020016040519081016040528093929190818152602001838360200280828437600092019190915250899250613252915050565b81600081518110612e0c57fe5b602002602001015134111561101e5761101e3383600081518110612e2c57fe5b602002602001015134036139b5565b60008060008342811015612e84576040805162461bcd60e51b815260206004820152601560248201526000805160206144f2833981519152604482015290519081900360640190fd5b612e928c8c8c8c8c8c6135c7565b90945092506000612ec47f00000000000000000000000000000000000000000000000000000000000000008e8e613192565b9050612ed28d338388613858565b612ede8c338387613858565b806001600160a01b0316636a627842886040518263ffffffff1660e01b815260040180826001600160a01b03168152602001915050602060405180830381600087803b158015612f2d57600080fd5b505af1158015612f41573d6000803e3d6000fd5b505050506040513d6020811015612f5757600080fd5b5051949d939c50939a509198505050505050505050565b6000808411612fae5760405162461bcd60e51b81526004018080602001828103825260288152602001806143af6028913960400191505060405180910390fd5b600083118015612fbe5750600082115b612ff95760405162461bcd60e51b81526004018080602001828103825260258152602001806144cd6025913960400191505060405180910390fd5b6000613007856103e56141c5565b9050600061301582856141c5565b9050600061302f83613029886103e86141c5565b90614228565b905080828161303a57fe5b04979650505050505050565b606060028251101561309f576040805162461bcd60e51b815260206004820152601b60248201527f4865726d65734c6962726172793a20494e56414c49445f504154480000000000604482015290519081900360640190fd5b815167ffffffffffffffff811180156130b757600080fd5b506040519080825280602002602001820160405280156130e1578160200160208202803683370190505b50905082816000815181106130f257fe5b60200260200101818152505060005b600183510381101561318a576000806131448786858151811061312057fe5b602002602001015187866001018151811061313757fe5b6020026020010151614277565b9150915061316684848151811061315757fe5b60200260200101518383612f6e565b84846001018151811061317557fe5b60209081029190910101525050600101613101565b509392505050565b60008060006131a185856140e7565b604080516bffffffffffffffffffffffff19606094851b811660208084019190915293851b81166034830152825160288184030181526048830184528051908501206001600160f81b031960688401529a90941b9093166069840152607d8301989098527f2b5c1f92763cc808d46f799ed176bc720efdf2600b6b6ba91296a61afd2aa00b609d808401919091528851808403909101815260bd909201909752805196019590952095945050505050565b60005b60018351038110156134895760008084838151811061327057fe5b602002602001015185846001018151811061328757fe5b602002602001015191509150600061329f83836140e7565b50905060008785600101815181106132b357fe5b60200260200101519050600080836001600160a01b0316866001600160a01b0316146132e1578260006132e5565b6000835b91509150600060028a510388106132fc578861333d565b61333d7f0000000000000000000000000000000000000000000000000000000000000000878c8b6002018151811061333057fe5b6020026020010151613192565b905061336a7f00000000000000000000000000000000000000000000000000000000000000008888613192565b6001600160a01b031663022c0d9f84848460006040519080825280601f01601f1916602001820160405280156133a7576020820181803683370190505b506040518563ffffffff1660e01b815260040180858152602001848152602001836001600160a01b0316815260200180602001828103825283818151815260200191508051906020019080838360005b8381101561340f5781810151838201526020016133f7565b50505050905090810190601f16801561343c5780820380516001836020036101000a031916815260200191505b5095505050505050600060405180830381600087803b15801561345e57600080fd5b505af1158015613472573d6000803e3d6000fd5b505060019099019850613255975050505050505050565b50505050565b60606002825110156134e8576040805162461bcd60e51b815260206004820152601b60248201527f4865726d65734c6962726172793a20494e56414c49445f504154480000000000604482015290519081900360640190fd5b815167ffffffffffffffff8111801561350057600080fd5b5060405190808252806020026020018201604052801561352a578160200160208202803683370190505b509050828160018351038151811061353e57fe5b60209081029190910101528151600019015b801561318a576000806135808786600186038151811061356c57fe5b602002602001015187868151811061313757fe5b915091506135a284848151811061359357fe5b60200260200101518383613f69565b8460018503815181106135b157fe5b6020908102919091010152505060001901613550565b60008060006001600160a01b03167f00000000000000000000000000000000000000000000000000000000000000006001600160a01b031663e6a439058a8a6040518363ffffffff1660e01b815260040180836001600160a01b03168152602001826001600160a01b031681526020019250505060206040518083038186803b15801561365357600080fd5b505afa158015613667573d6000803e3d6000fd5b505050506040513d602081101561367d57600080fd5b50516001600160a01b0316141561373b577f00000000000000000000000000000000000000000000000000000000000000006001600160a01b031663c9c6539689896040518363ffffffff1660e01b815260040180836001600160a01b03168152602001826001600160a01b0316815260200192505050602060405180830381600087803b15801561370e57600080fd5b505af1158015613722573d6000803e3d6000fd5b505050506040513d602081101561373857600080fd5b50505b6000806137697f00000000000000000000000000000000000000000000000000000000000000008b8b614277565b9150915081600014801561377b575080155b1561378b5787935086925061384b565b6000613798898484614041565b90508781116137eb57858110156137e05760405162461bcd60e51b815260040180806020018281038252602381526020018061433f6023913960400191505060405180910390fd5b889450925082613849565b60006137f8898486614041565b90508981111561380457fe5b878110156138435760405162461bcd60e51b81526004018080602001828103825260238152602001806144216023913960400191505060405180910390fd5b94508793505b505b5050965096945050505050565b604080516001600160a01b0385811660248301528481166044830152606480830185905283518084039091018152608490920183526020820180516001600160e01b03166323b872dd60e01b17815292518251600094606094938a169392918291908083835b602083106138dd5780518252601f1990920191602091820191016138be565b6001836020036101000a0380198251168184511680821785525050505050509050019150506000604051808303816000865af19150503d806000811461393f576040519150601f19603f3d011682016040523d82523d6000602084013e613944565b606091505b5091509150818015613972575080511580613972575080806020019051602081101561396f57600080fd5b50515b6139ad5760405162461bcd60e51b81526004018080602001828103825260248152602001806144a96024913960400191505060405180910390fd5b505050505050565b604080516000808252602082019092526001600160a01b0384169083906040518082805190602001908083835b60208310613a015780518252601f1990920191602091820191016139e2565b6001836020036101000a03801982511681845116808217855250505050505090500191505060006040518083038185875af1925050503d8060008114613a63576040519150601f19603f3d011682016040523d82523d6000602084013e613a68565b606091505b5050905080613aa85760405162461bcd60e51b81526004018080602001828103825260238152602001806144866023913960400191505060405180910390fd5b505050565b604080516001600160a01b038481166024830152604480830185905283518084039091018152606490920183526020820180516001600160e01b031663a9059cbb60e01b178152925182516000946060949389169392918291908083835b60208310613b2a5780518252601f199092019160209182019101613b0b565b6001836020036101000a0380198251168184511680821785525050505050509050019150506000604051808303816000865af19150503d8060008114613b8c576040519150601f19603f3d011682016040523d82523d6000602084013e613b91565b606091505b5091509150818015613bbf575080511580613bbf5750808060200190516020811015613bbc57600080fd5b50515b613c10576040805162461bcd60e51b815260206004820152601f60248201527f5472616e7366657248656c7065723a205452414e534645525f4641494c454400604482015290519081900360640190fd5b5050505050565b60005b6001835103811015613aa857600080848381518110613c3557fe5b6020026020010151858460010181518110613c4c57fe5b6020026020010151915091506000613c6483836140e7565b5090506000613c947f00000000000000000000000000000000000000000000000000000000000000008585613192565b9050600080600080846001600160a01b0316630902f1ac6040518163ffffffff1660e01b815260040160606040518083038186803b158015613cd557600080fd5b505afa158015613ce9573d6000803e3d6000fd5b505050506040513d6060811015613cff57600080fd5b5080516020909101516001600160701b0391821693501690506000806001600160a01b038a811690891614613d35578284613d38565b83835b91509150613d8d828b6001600160a01b03166370a082318a6040518263ffffffff1660e01b815260040180826001600160a01b0316815260200191505060206040518083038186803b158015611f6857600080fd5b9550613d9a868383612f6e565b945050505050600080856001600160a01b0316886001600160a01b031614613dc457826000613dc8565b6000835b91509150600060028c51038a10613ddf578a613e13565b613e137f0000000000000000000000000000000000000000000000000000000000000000898e8d6002018151811061333057fe5b604080516000808252602082019283905263022c0d9f60e01b835260248201878152604483018790526001600160a01b038086166064850152608060848501908152845160a48601819052969750908c169563022c0d9f958a958a958a9591949193919260c486019290918190849084905b83811015613e9d578181015183820152602001613e85565b50505050905090810190601f168015613eca5780820380516001836020036101000a031916815260200191505b5095505050505050600060405180830381600087803b158015613eec57600080fd5b505af1158015613f00573d6000803e3d6000fd5b50506001909b019a50613c1a9950505050505050505050565b80820382811115611058576040805162461bcd60e51b815260206004820152601560248201527464732d6d6174682d7375622d756e646572666c6f7760581b604482015290519081900360640190fd5b6000808411613fa95760405162461bcd60e51b81526004018080602001828103825260298152602001806143866029913960400191505060405180910390fd5b600083118015613fb95750600082115b613ff45760405162461bcd60e51b81526004018080602001828103825260258152602001806144cd6025913960400191505060405180910390fd5b600061400c6103e861400686886141c5565b906141c5565b905060006140206103e56140068689613f19565b9050614037600182848161403057fe5b0490614228565b9695505050505050565b60008084116140815760405162461bcd60e51b81526004018080602001828103825260228152602001806143d76022913960400191505060405180910390fd5b6000831180156140915750600082115b6140cc5760405162461bcd60e51b81526004018080602001828103825260258152602001806144cd6025913960400191505060405180910390fd5b826140d785846141c5565b816140de57fe5b04949350505050565b600080826001600160a01b0316846001600160a01b0316141561413b5760405162461bcd60e51b81526004018080602001828103825260228152602001806144446022913960400191505060405180910390fd5b826001600160a01b0316846001600160a01b03161061415b57828461415e565b83835b90925090506001600160a01b0382166141be576040805162461bcd60e51b815260206004820152601b60248201527f4865726d65734c6962726172793a205a45524f5f414444524553530000000000604482015290519081900360640190fd5b9250929050565b60008115806141e0575050808202828282816141dd57fe5b04145b611058576040805162461bcd60e51b815260206004820152601460248201527364732d6d6174682d6d756c2d6f766572666c6f7760601b604482015290519081900360640190fd5b80820182811015611058576040805162461bcd60e51b815260206004820152601460248201527364732d6d6174682d6164642d6f766572666c6f7760601b604482015290519081900360640190fd5b600080600061428685856140e7565b509050600080614297888888613192565b6001600160a01b0316630902f1ac6040518163ffffffff1660e01b815260040160606040518083038186803b1580156142cf57600080fd5b505afa1580156142e3573d6000803e3d6000fd5b505050506040513d60608110156142f957600080fd5b5080516020909101516001600160701b0391821693501690506001600160a01b038781169084161461432c57808261432f565b81815b9099909850965050505050505056fe4865726d6573526f757465723a20494e53554646494349454e545f425f414d4f554e544865726d6573526f757465723a204558434553534956455f494e5055545f414d4f554e544865726d65734c6962726172793a20494e53554646494349454e545f4f55545055545f414d4f554e544865726d65734c6962726172793a20494e53554646494349454e545f494e5055545f414d4f554e544865726d65734c6962726172793a20494e53554646494349454e545f414d4f554e544865726d6573526f757465723a20494e53554646494349454e545f4f55545055545f414d4f554e544865726d6573526f757465723a20494e53554646494349454e545f415f414d4f554e544865726d65734c6962726172793a204944454e544943414c5f4144445245535345534865726d6573526f757465723a20494e56414c49445f504154480000000000005472616e7366657248656c7065723a204f4e455f5452414e534645525f4641494c45445472616e7366657248656c7065723a205452414e534645525f46524f4d5f4641494c45444865726d65734c6962726172793a20494e53554646494349454e545f4c49515549444954594865726d6573526f757465723a20455850495245440000000000000000000000a2646970667358221220d1811fa484b3267f9b0f0e077e1e4725467e9caa77019b8de58cdfd6c2e661d564736f6c634300060c0033",
  "linkReferences": {},
  "deployedLinkReferences": {}
}