{
  "_format": "hh-sol-artifact-1",
  "contractName": "Distributor",
  "sourceName": "contracts/Distributor.sol",
  "abi": [
    {
      "inputs": [
        {
          "internalType": "address",
          "name": "_router",
          "type": "address"
        },
        {
          "internalType": "address",
          "name": "_treasury",
          "type": "address"
        },
        {
          "internalType": "address",
          "name": "_xHRMSAddress",
          "type": "address"
        },
        {
          "internalType": "address",
          "name": "_sHRMSAddress",
          "type": "address"
        },
        {
          "internalType": "address",
          "name": "_ust",
          "type": "address"
        },
        {
          "internalType": "address",
          "name": "_HRMS",
          "type": "address"
        }
      ],
      "stateMutability": "nonpayable",
      "type": "constructor"
    },
    {
      "anonymous": false,
      "inputs": [
        {
          "indexed": true,
          "internalType": "address",
          "name": "previousOwner",
          "type": "address"
        },
        {
          "indexed": true,
          "internalType": "address",
          "name": "newOwner",
          "type": "address"
        }
      ],
      "name": "OwnershipTransferred",
      "type": "event"
    },
    {
      "anonymous": false,
      "inputs": [
        {
          "indexed": false,
          "internalType": "uint256",
          "name": "index",
          "type": "uint256"
        },
        {
          "indexed": false,
          "internalType": "address",
          "name": "token0",
          "type": "address"
        },
        {
          "indexed": false,
          "internalType": "address",
          "name": "token1",
          "type": "address"
        },
        {
          "indexed": false,
          "internalType": "uint256",
          "name": "amount0",
          "type": "uint256"
        },
        {
          "indexed": false,
          "internalType": "uint256",
          "name": "amount1",
          "type": "uint256"
        }
      ],
      "name": "liquidityFound",
      "type": "event"
    },
    {
      "anonymous": false,
      "inputs": [
        {
          "indexed": false,
          "internalType": "address",
          "name": "convertFrom",
          "type": "address"
        },
        {
          "indexed": false,
          "internalType": "address[]",
          "name": "path",
          "type": "address[]"
        },
        {
          "indexed": false,
          "internalType": "uint256[]",
          "name": "amounts",
          "type": "uint256[]"
        }
      ],
      "name": "onConvertTo",
      "type": "event"
    },
    {
      "anonymous": false,
      "inputs": [
        {
          "indexed": false,
          "internalType": "uint256",
          "name": "woneBalance",
          "type": "uint256"
        },
        {
          "indexed": false,
          "internalType": "uint256",
          "name": "treasureBalance",
          "type": "uint256"
        },
        {
          "indexed": false,
          "internalType": "uint256",
          "name": "xHRMSBalance",
          "type": "uint256"
        },
        {
          "indexed": false,
          "internalType": "uint256",
          "name": "sHRMSBalance",
          "type": "uint256"
        },
        {
          "indexed": false,
          "internalType": "uint256",
          "name": "ust",
          "type": "uint256"
        },
        {
          "indexed": false,
          "internalType": "uint256",
          "name": "hrms",
          "type": "uint256"
        }
      ],
      "name": "splitAndSendInfo",
      "type": "event"
    },
    {
      "inputs": [],
      "name": "HRMS",
      "outputs": [
        {
          "internalType": "address",
          "name": "",
          "type": "address"
        }
      ],
      "stateMutability": "view",
      "type": "function"
    },
    {
      "inputs": [
        {
          "internalType": "address",
          "name": "",
          "type": "address"
        }
      ],
      "name": "_callers",
      "outputs": [
        {
          "internalType": "bool",
          "name": "",
          "type": "bool"
        }
      ],
      "stateMutability": "view",
      "type": "function"
    },
    {
      "inputs": [
        {
          "internalType": "address",
          "name": "_token",
          "type": "address"
        },
        {
          "internalType": "address[]",
          "name": "_xHRMSPath",
          "type": "address[]"
        },
        {
          "internalType": "address[]",
          "name": "_sHRMSPath",
          "type": "address[]"
        }
      ],
      "name": "addNewToken",
      "outputs": [],
      "stateMutability": "nonpayable",
      "type": "function"
    },
    {
      "inputs": [],
      "name": "breakLp",
      "outputs": [],
      "stateMutability": "nonpayable",
      "type": "function"
    },
    {
      "inputs": [
        {
          "internalType": "uint256",
          "name": "_val",
          "type": "uint256"
        }
      ],
      "name": "breakLpMinAmount",
      "outputs": [],
      "stateMutability": "nonpayable",
      "type": "function"
    },
    {
      "inputs": [
        {
          "internalType": "contract IERC20Hermes",
          "name": "token",
          "type": "address"
        }
      ],
      "name": "convert",
      "outputs": [],
      "stateMutability": "nonpayable",
      "type": "function"
    },
    {
      "inputs": [],
      "name": "convertAll",
      "outputs": [],
      "stateMutability": "nonpayable",
      "type": "function"
    },
    {
      "inputs": [],
      "name": "factoryCtx",
      "outputs": [
        {
          "internalType": "contract IHermesFactory",
          "name": "",
          "type": "address"
        }
      ],
      "stateMutability": "view",
      "type": "function"
    },
    {
      "inputs": [],
      "name": "minLPAmount",
      "outputs": [
        {
          "internalType": "uint256",
          "name": "",
          "type": "uint256"
        }
      ],
      "stateMutability": "view",
      "type": "function"
    },
    {
      "inputs": [],
      "name": "owner",
      "outputs": [
        {
          "internalType": "address",
          "name": "",
          "type": "address"
        }
      ],
      "stateMutability": "view",
      "type": "function"
    },
    {
      "inputs": [
        {
          "internalType": "uint256",
          "name": "i",
          "type": "uint256"
        }
      ],
      "name": "pairAt",
      "outputs": [
        {
          "internalType": "address",
          "name": "",
          "type": "address"
        }
      ],
      "stateMutability": "view",
      "type": "function"
    },
    {
      "inputs": [
        {
          "internalType": "address",
          "name": "pair",
          "type": "address"
        }
      ],
      "name": "pairContains",
      "outputs": [
        {
          "internalType": "bool",
          "name": "",
          "type": "bool"
        }
      ],
      "stateMutability": "view",
      "type": "function"
    },
    {
      "inputs": [],
      "name": "pairLength",
      "outputs": [
        {
          "internalType": "uint256",
          "name": "",
          "type": "uint256"
        }
      ],
      "stateMutability": "view",
      "type": "function"
    },
    {
      "inputs": [
        {
          "internalType": "address",
          "name": "pair",
          "type": "address"
        }
      ],
      "name": "pairPaths",
      "outputs": [
        {
          "internalType": "address[]",
          "name": "",
          "type": "address[]"
        },
        {
          "internalType": "address[]",
          "name": "",
          "type": "address[]"
        }
      ],
      "stateMutability": "view",
      "type": "function"
    },
    {
      "inputs": [
        {
          "internalType": "address",
          "name": "pair",
          "type": "address"
        }
      ],
      "name": "pairRemove",
      "outputs": [],
      "stateMutability": "nonpayable",
      "type": "function"
    },
    {
      "inputs": [],
      "name": "renounceOwnership",
      "outputs": [],
      "stateMutability": "nonpayable",
      "type": "function"
    },
    {
      "inputs": [],
      "name": "router",
      "outputs": [
        {
          "internalType": "address",
          "name": "",
          "type": "address"
        }
      ],
      "stateMutability": "view",
      "type": "function"
    },
    {
      "inputs": [],
      "name": "routerCtx",
      "outputs": [
        {
          "internalType": "contract IHermesRouter02",
          "name": "",
          "type": "address"
        }
      ],
      "stateMutability": "view",
      "type": "function"
    },
    {
      "inputs": [],
      "name": "run",
      "outputs": [],
      "stateMutability": "nonpayable",
      "type": "function"
    },
    {
      "inputs": [],
      "name": "sHRMSAddress",
      "outputs": [
        {
          "internalType": "address",
          "name": "",
          "type": "address"
        }
      ],
      "stateMutability": "view",
      "type": "function"
    },
    {
      "inputs": [
        {
          "internalType": "address",
          "name": "caller",
          "type": "address"
        },
        {
          "internalType": "bool",
          "name": "status",
          "type": "bool"
        }
      ],
      "name": "setCaller",
      "outputs": [],
      "stateMutability": "nonpayable",
      "type": "function"
    },
    {
      "inputs": [
        {
          "internalType": "address",
          "name": "_token",
          "type": "address"
        },
        {
          "internalType": "address[]",
          "name": "_xHRMSPath",
          "type": "address[]"
        },
        {
          "internalType": "address[]",
          "name": "_sHRMSPath",
          "type": "address[]"
        }
      ],
      "name": "setToken",
      "outputs": [],
      "stateMutability": "nonpayable",
      "type": "function"
    },
    {
      "inputs": [],
      "name": "splitAndSend",
      "outputs": [],
      "stateMutability": "nonpayable",
      "type": "function"
    },
    {
      "inputs": [
        {
          "internalType": "address",
          "name": "",
          "type": "address"
        },
        {
          "internalType": "uint256",
          "name": "",
          "type": "uint256"
        }
      ],
      "name": "tokensWithPathForSHRMS",
      "outputs": [
        {
          "internalType": "address",
          "name": "",
          "type": "address"
        }
      ],
      "stateMutability": "view",
      "type": "function"
    },
    {
      "inputs": [
        {
          "internalType": "address",
          "name": "",
          "type": "address"
        },
        {
          "internalType": "uint256",
          "name": "",
          "type": "uint256"
        }
      ],
      "name": "tokensWithPathForXHRMS",
      "outputs": [
        {
          "internalType": "address",
          "name": "",
          "type": "address"
        }
      ],
      "stateMutability": "view",
      "type": "function"
    },
    {
      "inputs": [
        {
          "internalType": "address",
          "name": "newOwner",
          "type": "address"
        }
      ],
      "name": "transferOwnership",
      "outputs": [],
      "stateMutability": "nonpayable",
      "type": "function"
    },
    {
      "inputs": [],
      "name": "treasury",
      "outputs": [
        {
          "internalType": "address",
          "name": "",
          "type": "address"
        }
      ],
      "stateMutability": "view",
      "type": "function"
    },
    {
      "inputs": [],
      "name": "ust",
      "outputs": [
        {
          "internalType": "address",
          "name": "",
          "type": "address"
        }
      ],
      "stateMutability": "view",
      "type": "function"
    },
    {
      "inputs": [],
      "name": "wone",
      "outputs": [
        {
          "internalType": "address",
          "name": "",
          "type": "address"
        }
      ],
      "stateMutability": "view",
      "type": "function"
    },
    {
      "inputs": [],
      "name": "xHRMSAddress",
      "outputs": [
        {
          "internalType": "address",
          "name": "",
          "type": "address"
        }
      ],
      "stateMutability": "view",
      "type": "function"
    }
  ],
  "bytecode": "0x6080604052620f4240600f553480156200001857600080fd5b5060405162002c5538038062002c558339810160408190526200003b916200033b565b6200004f62000049620002a6565b620002aa565b600880546001600160a01b03199081166001600160a01b03898116918217909355600780548316898516179055600980548316888516179055600a80548316878516179055600580548316868516179055600680548316858516179055600b805490921617908190556040805163c45a015560e01b81529051919092169163c45a0155916004828101926020929190829003018186803b158015620000f357600080fd5b505afa15801562000108573d6000803e3d6000fd5b505050506040513d601f19601f820116820180604052508101906200012e919062000317565b600c80546001600160a01b0319166001600160a01b0392831617908190556040805163574f2ba360e01b81529051919092169163574f2ba3916004808301926020929190829003018186803b1580156200018757600080fd5b505afa1580156200019c573d6000803e3d6000fd5b505050506040513d601f19601f82011682018060405250810190620001c29190620003bb565b50600b60009054906101000a90046001600160a01b03166001600160a01b031663c936a9c16040518163ffffffff1660e01b815260040160206040518083038186803b1580156200021257600080fd5b505afa15801562000227573d6000803e3d6000fd5b505050506040513d601f19601f820116820180604052508101906200024d919062000317565b600480546001600160a01b0319166001600160a01b03929092169190911790555050336000908152600160208190526040808320805460ff1990811684179091553084529220805490921617905550620003d492505050565b3390565b600080546001600160a01b038381166001600160a01b0319831681178455604051919092169283917f8be0079c531659141344cd1fd0a4f28419497f9722a3daafe3b4186f6b6457e09190a35050565b80516001600160a01b03811681146200031257600080fd5b919050565b60006020828403121562000329578081fd5b6200033482620002fa565b9392505050565b60008060008060008060c0878903121562000354578182fd5b6200035f87620002fa565b95506200036f60208801620002fa565b94506200037f60408801620002fa565b93506200038f60608801620002fa565b92506200039f60808801620002fa565b9150620003af60a08801620002fa565b90509295509295509295565b600060208284031215620003cd578081fd5b5051919050565b61287180620003e46000396000f3fe608060405234801561001057600080fd5b50600436106101da5760003560e01c8063c230402411610104578063def2489b116100a2578063f3f427e111610071578063f3f427e114610366578063f7b75cf014610379578063f887ea401461038e578063fcc9136c14610396576101da565b8063def2489b14610317578063e1dff61b1461032a578063f10b2c5a1461034b578063f2fde38b14610353576101da565b8063c9696b9a116100de578063c9696b9a146102e1578063cfe196d0146102f4578063d029d38614610307578063d6afc4641461030f576101da565b8063c2304024146102be578063c896782d146102d1578063c8d0b4ab146102d9576101da565b80638da5cb5b1161017c578063a0fc2db71161014b578063a0fc2db714610293578063ac5747ba146102a6578063ace66163146102ae578063c0406226146102b6576101da565b80638da5cb5b1461025257806394c8a14d1461025a5780639af5aabc1461026d5780639cae6eae14610280576101da565b80634cb3c599116101b85780634cb3c5991461021a57806361d027b31461023a578063715018a614610242578063884903d11461024a576101da565b8063020c0020146101df57806315fc621a146101fd578063214adf4914610207575b600080fd5b6101e761039e565b6040516101f49190612454565b60405180910390f35b6102056103ad565b005b6101e76102153660046122ac565b610adf565b61022d6102283660046121c9565b610b17565b6040516101f49190612554565b6101e7610b2a565b610205610b39565b6101e7610b82565b6101e7610b91565b6101e76102683660046122ac565b610ba0565b6101e761027b366004612383565b610bbc565b61020561028e366004612274565b610bc9565b6102056102a1366004612201565b610c33565b6101e7610c82565b6101e7610c91565b610205610ca0565b6102056102cc3660046121c9565b610ce7565b6101e7610d35565b6101e7610d44565b61022d6102ef3660046121c9565b610d53565b610205610302366004612383565b610d68565b610205610d9c565b6101e761113c565b6102056103253660046121c9565b61114b565b61033d6103383660046121c9565b611403565b6040516101f4929190612526565b6102056114e6565b6102056103613660046121c9565b611aea565b610205610374366004612201565b611b58565b610381611bbf565b6040516101f49190612679565b6101e7611bc5565b610381611bd4565b600a546001600160a01b031681565b3360009081526001602052604090205460ff166103e55760405162461bcd60e51b81526004016103dc906125e7565b60405180910390fd5b600480546040516370a0823160e01b81526001600160a01b039091169160009183916370a082319161041991309101612454565b60206040518083038186803b15801561043157600080fd5b505afa158015610445573d6000803e3d6000fd5b505050506040513d601f19601f82011682018060405250810190610469919061239b565b9050620f424081101561047d575050610add565b60006002836001600160a01b03166370a08231306040518263ffffffff1660e01b81526004016104ad9190612454565b60206040518083038186803b1580156104c557600080fd5b505afa1580156104d9573d6000803e3d6000fd5b505050506040513d601f19601f820116820180604052508101906104fd919061239b565b610507919061279a565b905060006004846001600160a01b03166370a08231306040518263ffffffff1660e01b81526004016105399190612454565b60206040518083038186803b15801561055157600080fd5b505afa158015610565573d6000803e3d6000fd5b505050506040513d601f19601f82011682018060405250810190610589919061239b565b610593919061279a565b905060006004856001600160a01b03166370a08231306040518263ffffffff1660e01b81526004016105c59190612454565b60206040518083038186803b1580156105dd57600080fd5b505afa1580156105f1573d6000803e3d6000fd5b505050506040513d601f19601f82011682018060405250810190610615919061239b565b61061f919061279a565b60075460405163a9059cbb60e01b81529192506001600160a01b038088169263a9059cbb92610654921690879060040161250d565b602060405180830381600087803b15801561066e57600080fd5b505af1158015610682573d6000803e3d6000fd5b505050506040513d601f19601f820116820180604052508101906106a69190612367565b50604080516002808252606082018352600092602083019080368337505060045482519293506001600160a01b0316918391506000906106f657634e487b7160e01b600052603260045260246000fd5b6001600160a01b03928316602091820292909201015260055482519116908290600190811061073557634e487b7160e01b600052603260045260246000fd5b6001600160a01b03928316602091820292909201015260048054600b5460405163095ea7b360e01b81529184169363095ea7b39361077a93929091169187910161250d565b602060405180830381600087803b15801561079457600080fd5b505af11580156107a8573d6000803e3d6000fd5b505050506040513d601f19601f820116820180604052508101906107cc9190612367565b50600b54600a546000916001600160a01b03908116916338ed173991869185918791166107fb42612710612782565b6040518663ffffffff1660e01b815260040161081b9594939291906126b1565b600060405180830381600087803b15801561083557600080fd5b505af1158015610849573d6000803e3d6000fd5b505050506040513d6000823e601f3d908101601f1916820160405261087191908101906122d7565b6040805160028082526060820183529293506000929091602083019080368337505060045482519293506001600160a01b0316918391506000906108c557634e487b7160e01b600052603260045260246000fd5b6001600160a01b03928316602091820292909201015260065482519116908290600190811061090457634e487b7160e01b600052603260045260246000fd5b6001600160a01b03928316602091820292909201015260048054600b5460405163095ea7b360e01b81529184169363095ea7b39361094993929091169189910161250d565b602060405180830381600087803b15801561096357600080fd5b505af1158015610977573d6000803e3d6000fd5b505050506040513d601f19601f8201168201806040525081019061099b9190612367565b50600b546009546000916001600160a01b03908116916338ed173991889185918791166109ca42612710612782565b6040518663ffffffff1660e01b81526004016109ea9594939291906126b1565b600060405180830381600087803b158015610a0457600080fd5b505af1158015610a18573d6000803e3d6000fd5b505050506040513d6000823e601f3d908101601f19168201604052610a4091908101906122d7565b90507f97fb1b8cb7545835f836c006e4ce8a037638507b9977b768299fdcb829882ddb8888888887600181518110610a8857634e487b7160e01b600052603260045260246000fd5b602002602001015186600181518110610ab157634e487b7160e01b600052603260045260246000fd5b6020026020010151604051610acb9695949392919061270c565b60405180910390a15050505050505050505b565b60036020528160005260406000208181548110610afb57600080fd5b6000918252602090912001546001600160a01b03169150829050565b6000610b24600d83611be5565b92915050565b6007546001600160a01b031681565b610b41611c01565b6001600160a01b0316610b52610b91565b6001600160a01b031614610b785760405162461bcd60e51b81526004016103dc90612644565b610add6000611c05565b6006546001600160a01b031681565b6000546001600160a01b031690565b60026020528160005260406000208181548110610afb57600080fd5b6000610b24600d83611c55565b610bd1611c01565b6001600160a01b0316610be2610b91565b6001600160a01b031614610c085760405162461bcd60e51b81526004016103dc90612644565b6001600160a01b03919091166000908152600160205260409020805460ff1916911515919091179055565b610c3b611c01565b6001600160a01b0316610c4c610b91565b6001600160a01b031614610c725760405162461bcd60e51b81526004016103dc90612644565b610c7d838383611c61565b505050565b6009546001600160a01b031681565b600c546001600160a01b031681565b3360009081526001602052604090205460ff16610ccf5760405162461bcd60e51b81526004016103dc906125e7565b610cd76114e6565b610cdf610d9c565b610add6103ad565b610cef611c01565b6001600160a01b0316610d00610b91565b6001600160a01b031614610d265760405162461bcd60e51b81526004016103dc90612644565b610d31600d82611ec9565b5050565b6005546001600160a01b031681565b600b546001600160a01b031681565b60016020526000908152604090205460ff1681565b3360009081526001602052604090205460ff16610d975760405162461bcd60e51b81526004016103dc906125e7565b600f55565b3360009081526001602052604090205460ff16610dcb5760405162461bcd60e51b81526004016103dc906125e7565b600c546040805163574f2ba360e01b815290516000926001600160a01b03169163574f2ba3916004808301926020929190829003018186803b158015610e1057600080fd5b505afa158015610e24573d6000803e3d6000fd5b505050506040513d601f19601f82011682018060405250810190610e48919061239b565b905060005b81811015610d3157600c54604051631e3dd18b60e01b81526000916001600160a01b031690631e3dd18b90610e86908590600401612679565b60206040518083038186803b158015610e9e57600080fd5b505afa158015610eb2573d6000803e3d6000fd5b505050506040513d601f19601f82011682018060405250810190610ed691906121e5565b905060008190506000826001600160a01b0316630dfe16816040518163ffffffff1660e01b815260040160206040518083038186803b158015610f1857600080fd5b505afa158015610f2c573d6000803e3d6000fd5b505050506040513d601f19601f82011682018060405250810190610f5091906121e5565b90506000836001600160a01b031663d21220a76040518163ffffffff1660e01b815260040160206040518083038186803b158015610f8d57600080fd5b505afa158015610fa1573d6000803e3d6000fd5b505050506040513d601f19601f82011682018060405250810190610fc591906121e5565b90506000826001600160a01b03166370a08231306040518263ffffffff1660e01b8152600401610ff59190612454565b60206040518083038186803b15801561100d57600080fd5b505afa158015611021573d6000803e3d6000fd5b505050506040513d601f19601f82011682018060405250810190611045919061239b565b90506000826001600160a01b03166370a08231306040518263ffffffff1660e01b81526004016110759190612454565b60206040518083038186803b15801561108d57600080fd5b505afa1580156110a1573d6000803e3d6000fd5b505050506040513d601f19601f820116820180604052508101906110c5919061239b565b9050620f4240821180156110e757506004546001600160a01b03858116911614155b156110f5576110f58461114b565b620f42408111801561111557506004546001600160a01b03848116911614155b15611123576111238361114b565b5050505050508080611134906127d1565b915050610e4d565b6004546001600160a01b031681565b3360009081526001602052604090205460ff1661117a5760405162461bcd60e51b81526004016103dc906125e7565b60045481906001600160a01b03808316911614156111985750611400565b6111a3600d82611be5565b6111ad5750611400565b6040516370a0823160e01b81526000906001600160a01b038416906370a08231906111dc903090600401612454565b60206040518083038186803b1580156111f457600080fd5b505afa158015611208573d6000803e3d6000fd5b505050506040513d601f19601f8201168201806040525081019061122c919061239b565b6001600160a01b038316600090815260026020526040812080549293509161126457634e487b7160e01b600052603260045260246000fd5b600091825260209091200154600b5460405163095ea7b360e01b81526001600160a01b039283169263095ea7b3926112a392911690859060040161250d565b602060405180830381600087803b1580156112bd57600080fd5b505af11580156112d1573d6000803e3d6000fd5b505050506040513d601f19601f820116820180604052508101906112f59190612367565b50600b546001600160a01b038381166000908152600260205260408120909291909116906338ed173990849084903061133042612710612782565b6040518663ffffffff1660e01b81526004016113509594939291906126ed565b600060405180830381600087803b15801561136a57600080fd5b505af115801561137e573d6000803e3d6000fd5b505050506040513d6000823e601f3d908101601f191682016040526113a691908101906122d7565b6001600160a01b0384166000908152600260205260409081902090519192507fcc3d9cd866fd87bfa5181f9d342eb794966d82d82d093c1738daf88b3ad50b23916113f491869185906124a8565b60405180910390a15050505b50565b6001600160a01b0381166000908152600260209081526040808320600383529281902083548251818502810185019093528083526060948594909391849183018282801561147a57602002820191906000526020600020905b81546001600160a01b0316815260019091019060200180831161145c575b50505050509150808054806020026020016040519081016040528092919081815260200182805480156114d657602002820191906000526020600020905b81546001600160a01b031681526001909101906020018083116114b8575b5050505050905091509150915091565b3360009081526001602052604090205460ff166115155760405162461bcd60e51b81526004016103dc906125e7565b600c546040805163574f2ba360e01b815290516000926001600160a01b03169163574f2ba3916004808301926020929190829003018186803b15801561155a57600080fd5b505afa15801561156e573d6000803e3d6000fd5b505050506040513d601f19601f82011682018060405250810190611592919061239b565b905060005b81811015610d3157600c54604051631e3dd18b60e01b81526000916001600160a01b031690631e3dd18b906115d0908590600401612679565b60206040518083038186803b1580156115e857600080fd5b505afa1580156115fc573d6000803e3d6000fd5b505050506040513d601f19601f8201168201806040525081019061162091906121e5565b90506000816001600160a01b03166370a08231306040518263ffffffff1660e01b81526004016116509190612454565b60206040518083038186803b15801561166857600080fd5b505afa15801561167c573d6000803e3d6000fd5b505050506040513d601f19601f820116820180604052508101906116a0919061239b565b9050600f5481116116b2575050611ad8565b6000826001600160a01b0316630dfe16816040518163ffffffff1660e01b815260040160206040518083038186803b1580156116ed57600080fd5b505afa158015611701573d6000803e3d6000fd5b505050506040513d601f19601f8201168201806040525081019061172591906121e5565b90506000836001600160a01b031663d21220a76040518163ffffffff1660e01b815260040160206040518083038186803b15801561176257600080fd5b505afa158015611776573d6000803e3d6000fd5b505050506040513d601f19601f8201168201806040525081019061179a91906121e5565b600b5460405163095ea7b360e01b81529192506001600160a01b038087169263095ea7b3926117cf921690879060040161250d565b602060405180830381600087803b1580156117e957600080fd5b505af11580156117fd573d6000803e3d6000fd5b505050506040513d601f19601f820116820180604052508101906118219190612367565b50600080600b60009054906101000a90046001600160a01b03166001600160a01b031663baa2abde876001600160a01b031663d21220a76040518163ffffffff1660e01b815260040160206040518083038186803b15801561188257600080fd5b505afa158015611896573d6000803e3d6000fd5b505050506040513d601f19601f820116820180604052508101906118ba91906121e5565b886001600160a01b0316630dfe16816040518163ffffffff1660e01b815260040160206040518083038186803b1580156118f357600080fd5b505afa158015611907573d6000803e3d6000fd5b505050506040513d601f19601f8201168201806040525081019061192b91906121e5565b886000803061193b42603c612782565b6040518863ffffffff1660e01b815260040161195d9796959493929190612468565b6040805180830381600087803b15801561197657600080fd5b505af115801561198a573d6000803e3d6000fd5b505050506040513d601f19601f820116820180604052508101906119ae91906123b3565b915091507f2b3fc929cf367b0b3c63f1e4147901bacd35064a5a0f6cfc72d42d92feb492c287876001600160a01b0316630dfe16816040518163ffffffff1660e01b815260040160206040518083038186803b158015611a0d57600080fd5b505afa158015611a21573d6000803e3d6000fd5b505050506040513d601f19601f82011682018060405250810190611a4591906121e5565b886001600160a01b031663d21220a76040518163ffffffff1660e01b815260040160206040518083038186803b158015611a7e57600080fd5b505afa158015611a92573d6000803e3d6000fd5b505050506040513d601f19601f82011682018060405250810190611ab691906121e5565b8585604051611ac9959493929190612682565b60405180910390a15050505050505b80611ae2816127d1565b915050611597565b611af2611c01565b6001600160a01b0316611b03610b91565b6001600160a01b031614611b295760405162461bcd60e51b81526004016103dc90612644565b6001600160a01b038116611b4f5760405162461bcd60e51b81526004016103dc906125a1565b61140081611c05565b611b60611c01565b6001600160a01b0316611b71610b91565b6001600160a01b031614611b975760405162461bcd60e51b81526004016103dc90612644565b611ba2600d84611be5565b15610c725760405162461bcd60e51b81526004016103dc9061260d565b600f5481565b6008546001600160a01b031681565b6000611be0600d611ede565b905090565b6000611bfa836001600160a01b038416611ee9565b9392505050565b3390565b600080546001600160a01b038381166001600160a01b0319831681178455604051919092169283917f8be0079c531659141344cd1fd0a4f28419497f9722a3daafe3b4186f6b6457e09190a35050565b6000611bfa8383611f01565b60005b8251811015611d2357828181518110611c8d57634e487b7160e01b600052603260045260246000fd5b60200260200101516001600160a01b03166370a08231306040518263ffffffff1660e01b8152600401611cc09190612454565b60206040518083038186803b158015611cd857600080fd5b505afa158015611cec573d6000803e3d6000fd5b505050506040513d601f19601f82011682018060405250810190611d10919061239b565b5080611d1b816127d1565b915050611c64565b5060005b8151811015611de657818181518110611d5057634e487b7160e01b600052603260045260246000fd5b60200260200101516001600160a01b03166370a08231306040518263ffffffff1660e01b8152600401611d839190612454565b60206040518083038186803b158015611d9b57600080fd5b505afa158015611daf573d6000803e3d6000fd5b505050506040513d601f19601f82011682018060405250810190611dd3919061239b565b5080611dde816127d1565b915050611d27565b506040516370a0823160e01b81526001600160a01b038416906370a0823190611e13903090600401612454565b60206040518083038186803b158015611e2b57600080fd5b505afa158015611e3f573d6000803e3d6000fd5b505050506040513d601f19601f82011682018060405250810190611e63919061239b565b50611e6f600d84611f5a565b506001600160a01b03831660009081526002602090815260409091208351611e99928501906120da565b506001600160a01b03831660009081526003602090815260409091208251611ec3928401906120da565b50505050565b6000611bfa836001600160a01b038416611f6f565b6000610b248261208c565b60009081526001919091016020526040902054151590565b81546000908210611f245760405162461bcd60e51b81526004016103dc9061255f565b826000018281548110611f4757634e487b7160e01b600052603260045260246000fd5b9060005260206000200154905092915050565b6000611bfa836001600160a01b038416612090565b60008181526001830160205260408120548015612082576000611f936001836127ba565b8554909150600090611fa7906001906127ba565b90506000866000018281548110611fce57634e487b7160e01b600052603260045260246000fd5b9060005260206000200154905080876000018481548110611fff57634e487b7160e01b600052603260045260246000fd5b600091825260209091200155612016836001612782565b6000828152600189016020526040902055865487908061204657634e487b7160e01b600052603160045260246000fd5b60019003818190600052602060002001600090559055866001016000878152602001908152602001600020600090556001945050505050610b24565b6000915050610b24565b5490565b600061209c8383611ee9565b6120d257508154600181810184556000848152602080822090930184905584548482528286019093526040902091909155610b24565b506000610b24565b82805482825590600052602060002090810192821561212f579160200282015b8281111561212f57825182546001600160a01b0319166001600160a01b039091161782556020909201916001909101906120fa565b5061213b92915061213f565b5090565b5b8082111561213b5760008155600101612140565b600082601f830112612164578081fd5b813560206121796121748361275e565b612734565b8281528181019085830183850287018401881015612195578586fd5b855b858110156121bc5781356121aa81612818565b84529284019290840190600101612197565b5090979650505050505050565b6000602082840312156121da578081fd5b8135611bfa81612818565b6000602082840312156121f6578081fd5b8151611bfa81612818565b600080600060608486031215612215578182fd5b833561222081612818565b9250602084013567ffffffffffffffff8082111561223c578384fd5b61224887838801612154565b9350604086013591508082111561225d578283fd5b5061226a86828701612154565b9150509250925092565b60008060408385031215612286578182fd5b823561229181612818565b915060208301356122a18161282d565b809150509250929050565b600080604083850312156122be578182fd5b82356122c981612818565b946020939093013593505050565b600060208083850312156122e9578182fd5b825167ffffffffffffffff8111156122ff578283fd5b8301601f8101851361230f578283fd5b805161231d6121748261275e565b8181528381019083850185840285018601891015612339578687fd5b8694505b8385101561235b57805183526001949094019391850191850161233d565b50979650505050505050565b600060208284031215612378578081fd5b8151611bfa8161282d565b600060208284031215612394578081fd5b5035919050565b6000602082840312156123ac578081fd5b5051919050565b600080604083850312156123c5578182fd5b505080516020909101519092909150565b6000815180845260208085019450808401835b8381101561240e5781516001600160a01b0316875295820195908201906001016123e9565b509495945050505050565b6000815480845260208085019450838352808320835b8381101561240e5781546001600160a01b03168752958201956001918201910161242f565b6001600160a01b0391909116815260200190565b6001600160a01b039788168152958716602087015260408601949094526060850192909252608084015290921660a082015260c081019190915260e00190565b6001600160a01b0384168152606060208083018290526000916124cd90840186612419565b8381036040850152845180825282860191830190845b818110156124ff578351835292840192918401916001016124e3565b509098975050505050505050565b6001600160a01b03929092168252602082015260400190565b60006040825261253960408301856123d6565b828103602084015261254b81856123d6565b95945050505050565b901515815260200190565b60208082526022908201527f456e756d657261626c655365743a20696e646578206f7574206f6620626f756e604082015261647360f01b606082015260800190565b60208082526026908201527f4f776e61626c653a206e6577206f776e657220697320746865207a65726f206160408201526564647265737360d01b606082015260800190565b6020808252600c908201526b3737ba10309031b0b63632b960a11b604082015260600190565b6020808252601b908201527f546f6b656e20697320616c726561647920726567697374657265640000000000604082015260600190565b6020808252818101527f4f776e61626c653a2063616c6c6572206973206e6f7420746865206f776e6572604082015260600190565b90815260200190565b9485526001600160a01b0393841660208601529190921660408401526060830191909152608082015260a00190565b600086825285602083015260a060408301526126d060a08301866123d6565b6001600160a01b0394909416606083015250608001529392505050565b600086825285602083015260a060408301526126d060a0830186612419565b958652602086019490945260408501929092526060840152608083015260a082015260c00190565b60405181810167ffffffffffffffff8111828210171561275657612756612802565b604052919050565b600067ffffffffffffffff82111561277857612778612802565b5060209081020190565b60008219821115612795576127956127ec565b500190565b6000826127b557634e487b7160e01b81526012600452602481fd5b500490565b6000828210156127cc576127cc6127ec565b500390565b60006000198214156127e5576127e56127ec565b5060010190565b634e487b7160e01b600052601160045260246000fd5b634e487b7160e01b600052604160045260246000fd5b6001600160a01b038116811461140057600080fd5b801515811461140057600080fdfea264697066735822122004799335ae4c6c924eb3503e34c988ab536ddbe121617b25c56ae8bad30018ce64736f6c63430008000033",
  "linkReferences": {},
  "deployedLinkReferences": {}
}