{
  "_format": "hh-sol-artifact-1",
  "contractName": "Distributor",
  "sourceName": "contracts/Distributor.sol",
  "abi": [
    {
      "inputs": [
        {
          "internalType": "address",
          "name": "_router",
          "type": "address"
        },
        {
          "internalType": "address",
          "name": "_treasury",
          "type": "address"
        },
        {
          "internalType": "address",
          "name": "_xHRMSAddress",
          "type": "address"
        },
        {
          "internalType": "address",
          "name": "_HRMS",
          "type": "address"
        }
      ],
      "stateMutability": "nonpayable",
      "type": "constructor"
    },
    {
      "anonymous": false,
      "inputs": [
        {
          "indexed": true,
          "internalType": "address",
          "name": "previousOwner",
          "type": "address"
        },
        {
          "indexed": true,
          "internalType": "address",
          "name": "newOwner",
          "type": "address"
        }
      ],
      "name": "OwnershipTransferred",
      "type": "event"
    },
    {
      "anonymous": false,
      "inputs": [
        {
          "indexed": false,
          "internalType": "uint256",
          "name": "index",
          "type": "uint256"
        },
        {
          "indexed": false,
          "internalType": "address",
          "name": "token0",
          "type": "address"
        },
        {
          "indexed": false,
          "internalType": "address",
          "name": "token1",
          "type": "address"
        },
        {
          "indexed": false,
          "internalType": "uint256",
          "name": "amount0",
          "type": "uint256"
        },
        {
          "indexed": false,
          "internalType": "uint256",
          "name": "amount1",
          "type": "uint256"
        }
      ],
      "name": "liquidityFound",
      "type": "event"
    },
    {
      "anonymous": false,
      "inputs": [
        {
          "indexed": false,
          "internalType": "address",
          "name": "convertFrom",
          "type": "address"
        },
        {
          "indexed": false,
          "internalType": "address[]",
          "name": "path",
          "type": "address[]"
        },
        {
          "indexed": false,
          "internalType": "uint256[]",
          "name": "amounts",
          "type": "uint256[]"
        }
      ],
      "name": "onConvertTo",
      "type": "event"
    },
    {
      "anonymous": false,
      "inputs": [
        {
          "indexed": false,
          "internalType": "uint256",
          "name": "woneBalance",
          "type": "uint256"
        },
        {
          "indexed": false,
          "internalType": "uint256",
          "name": "treasureBalance",
          "type": "uint256"
        },
        {
          "indexed": false,
          "internalType": "uint256",
          "name": "xHRMSBalance",
          "type": "uint256"
        },
        {
          "indexed": false,
          "internalType": "uint256",
          "name": "sHRMSBalance",
          "type": "uint256"
        },
        {
          "indexed": false,
          "internalType": "uint256",
          "name": "ust",
          "type": "uint256"
        },
        {
          "indexed": false,
          "internalType": "uint256",
          "name": "hrms",
          "type": "uint256"
        }
      ],
      "name": "splitAndSendInfo",
      "type": "event"
    },
    {
      "inputs": [],
      "name": "HRMS",
      "outputs": [
        {
          "internalType": "address",
          "name": "",
          "type": "address"
        }
      ],
      "stateMutability": "view",
      "type": "function"
    },
    {
      "inputs": [
        {
          "internalType": "address",
          "name": "",
          "type": "address"
        }
      ],
      "name": "_callers",
      "outputs": [
        {
          "internalType": "bool",
          "name": "",
          "type": "bool"
        }
      ],
      "stateMutability": "view",
      "type": "function"
    },
    {
      "inputs": [
        {
          "internalType": "address",
          "name": "_token",
          "type": "address"
        },
        {
          "internalType": "address[]",
          "name": "_xHRMSPath",
          "type": "address[]"
        }
      ],
      "name": "addNewToken",
      "outputs": [],
      "stateMutability": "nonpayable",
      "type": "function"
    },
    {
      "inputs": [],
      "name": "breakLp",
      "outputs": [],
      "stateMutability": "nonpayable",
      "type": "function"
    },
    {
      "inputs": [
        {
          "internalType": "uint256",
          "name": "_val",
          "type": "uint256"
        }
      ],
      "name": "breakLpMinAmount",
      "outputs": [],
      "stateMutability": "nonpayable",
      "type": "function"
    },
    {
      "inputs": [
        {
          "internalType": "contract IERC20Hermes",
          "name": "token",
          "type": "address"
        }
      ],
      "name": "convert",
      "outputs": [],
      "stateMutability": "nonpayable",
      "type": "function"
    },
    {
      "inputs": [],
      "name": "convertAll",
      "outputs": [],
      "stateMutability": "nonpayable",
      "type": "function"
    },
    {
      "inputs": [],
      "name": "factoryCtx",
      "outputs": [
        {
          "internalType": "contract IHermesFactory",
          "name": "",
          "type": "address"
        }
      ],
      "stateMutability": "view",
      "type": "function"
    },
    {
      "inputs": [],
      "name": "minLPAmount",
      "outputs": [
        {
          "internalType": "uint256",
          "name": "",
          "type": "uint256"
        }
      ],
      "stateMutability": "view",
      "type": "function"
    },
    {
      "inputs": [],
      "name": "owner",
      "outputs": [
        {
          "internalType": "address",
          "name": "",
          "type": "address"
        }
      ],
      "stateMutability": "view",
      "type": "function"
    },
    {
      "inputs": [
        {
          "internalType": "uint256",
          "name": "i",
          "type": "uint256"
        }
      ],
      "name": "pairAt",
      "outputs": [
        {
          "internalType": "address",
          "name": "",
          "type": "address"
        }
      ],
      "stateMutability": "view",
      "type": "function"
    },
    {
      "inputs": [
        {
          "internalType": "address",
          "name": "pair",
          "type": "address"
        }
      ],
      "name": "pairContains",
      "outputs": [
        {
          "internalType": "bool",
          "name": "",
          "type": "bool"
        }
      ],
      "stateMutability": "view",
      "type": "function"
    },
    {
      "inputs": [],
      "name": "pairLength",
      "outputs": [
        {
          "internalType": "uint256",
          "name": "",
          "type": "uint256"
        }
      ],
      "stateMutability": "view",
      "type": "function"
    },
    {
      "inputs": [
        {
          "internalType": "address",
          "name": "pair",
          "type": "address"
        }
      ],
      "name": "pairPaths",
      "outputs": [
        {
          "internalType": "address[]",
          "name": "",
          "type": "address[]"
        }
      ],
      "stateMutability": "view",
      "type": "function"
    },
    {
      "inputs": [
        {
          "internalType": "address",
          "name": "pair",
          "type": "address"
        }
      ],
      "name": "pairRemove",
      "outputs": [],
      "stateMutability": "nonpayable",
      "type": "function"
    },
    {
      "inputs": [],
      "name": "renounceOwnership",
      "outputs": [],
      "stateMutability": "nonpayable",
      "type": "function"
    },
    {
      "inputs": [],
      "name": "router",
      "outputs": [
        {
          "internalType": "address",
          "name": "",
          "type": "address"
        }
      ],
      "stateMutability": "view",
      "type": "function"
    },
    {
      "inputs": [],
      "name": "routerCtx",
      "outputs": [
        {
          "internalType": "contract IHermesRouter02",
          "name": "",
          "type": "address"
        }
      ],
      "stateMutability": "view",
      "type": "function"
    },
    {
      "inputs": [],
      "name": "run",
      "outputs": [],
      "stateMutability": "nonpayable",
      "type": "function"
    },
    {
      "inputs": [
        {
          "internalType": "address",
          "name": "caller",
          "type": "address"
        },
        {
          "internalType": "bool",
          "name": "status",
          "type": "bool"
        }
      ],
      "name": "setCaller",
      "outputs": [],
      "stateMutability": "nonpayable",
      "type": "function"
    },
    {
      "inputs": [
        {
          "internalType": "address",
          "name": "_token",
          "type": "address"
        },
        {
          "internalType": "address[]",
          "name": "_xHRMSPath",
          "type": "address[]"
        }
      ],
      "name": "setToken",
      "outputs": [],
      "stateMutability": "nonpayable",
      "type": "function"
    },
    {
      "inputs": [],
      "name": "splitAndSend",
      "outputs": [],
      "stateMutability": "nonpayable",
      "type": "function"
    },
    {
      "inputs": [
        {
          "internalType": "address",
          "name": "",
          "type": "address"
        },
        {
          "internalType": "uint256",
          "name": "",
          "type": "uint256"
        }
      ],
      "name": "tokensWithPathForXHRMS",
      "outputs": [
        {
          "internalType": "address",
          "name": "",
          "type": "address"
        }
      ],
      "stateMutability": "view",
      "type": "function"
    },
    {
      "inputs": [
        {
          "internalType": "address",
          "name": "newOwner",
          "type": "address"
        }
      ],
      "name": "transferOwnership",
      "outputs": [],
      "stateMutability": "nonpayable",
      "type": "function"
    },
    {
      "inputs": [],
      "name": "treasury",
      "outputs": [
        {
          "internalType": "address",
          "name": "",
          "type": "address"
        }
      ],
      "stateMutability": "view",
      "type": "function"
    },
    {
      "inputs": [],
      "name": "wone",
      "outputs": [
        {
          "internalType": "address",
          "name": "",
          "type": "address"
        }
      ],
      "stateMutability": "view",
      "type": "function"
    },
    {
      "inputs": [],
      "name": "xHRMSAddress",
      "outputs": [
        {
          "internalType": "address",
          "name": "",
          "type": "address"
        }
      ],
      "stateMutability": "view",
      "type": "function"
    }
  ],
  "bytecode": "0x6080604052620f4240600c553480156200001857600080fd5b50604051620026c4380380620026c48339810160408190526200003b916200031f565b6200004f620000496200028a565b6200028e565b600680546001600160a01b03199081166001600160a01b0387811691821790935560058054831687851617905560078054831686851617905560048054831685851617815560088054909316909117918290556040805163c45a015560e01b81529051929093169263c45a01559281830192602092829003018186803b158015620000d957600080fd5b505afa158015620000ee573d6000803e3d6000fd5b505050506040513d601f19601f82011682018060405250810190620001149190620002fb565b600980546001600160a01b0319166001600160a01b0392831617908190556040805163574f2ba360e01b81529051919092169163574f2ba3916004808301926020929190829003018186803b1580156200016d57600080fd5b505afa15801562000182573d6000803e3d6000fd5b505050506040513d601f19601f82011682018060405250810190620001a891906200037b565b50600860009054906101000a90046001600160a01b03166001600160a01b031663c936a9c16040518163ffffffff1660e01b815260040160206040518083038186803b158015620001f857600080fd5b505afa1580156200020d573d6000803e3d6000fd5b505050506040513d601f19601f82011682018060405250810190620002339190620002fb565b600380546001600160a01b0319166001600160a01b03929092169190911790555050336000908152600160208190526040808320805460ff1990811684179091553084529220805490921617905550620003949050565b3390565b600080546001600160a01b038381166001600160a01b0319831681178455604051919092169283917f8be0079c531659141344cd1fd0a4f28419497f9722a3daafe3b4186f6b6457e09190a35050565b80516001600160a01b0381168114620002f657600080fd5b919050565b6000602082840312156200030d578081fd5b6200031882620002de565b9392505050565b6000806000806080858703121562000335578283fd5b6200034085620002de565b93506200035060208601620002de565b92506200036060408601620002de565b91506200037060608601620002de565b905092959194509250565b6000602082840312156200038d578081fd5b5051919050565b61232080620003a46000396000f3fe608060405234801561001057600080fd5b50600436106101a95760003560e01c8063c2304024116100f9578063def2489b11610097578063f2fde38b11610071578063f2fde38b14610311578063f7b75cf014610324578063f887ea4014610339578063fcc9136c14610341576101a9565b8063def2489b146102d6578063e1dff61b146102e9578063f10b2c5a14610309576101a9565b8063ce65cd37116100d3578063ce65cd37146102a0578063cfe196d0146102b3578063d029d386146102c6578063d6afc464146102ce576101a9565b8063c230402414610272578063c8d0b4ab14610285578063c9696b9a1461028d576101a9565b806394c8a14d11610166578063a95be08511610140578063a95be08514610247578063ac5747ba1461025a578063ace6616314610262578063c04062261461026a576101a9565b806394c8a14d1461020e5780639af5aabc146102215780639cae6eae14610234576101a9565b806315fc621a146101ae5780634cb3c599146101b857806361d027b3146101e1578063715018a6146101f6578063884903d1146101fe5780638da5cb5b14610206575b600080fd5b6101b6610349565b005b6101cb6101c6366004611c53565b61076a565b6040516101d89190612003565b60405180910390f35b6101e961077d565b6040516101d89190611f1e565b6101b661078c565b6101e96107d5565b6101e96107e4565b6101e961021c366004611d76565b6107f3565b6101e961022f366004611e4d565b61082b565b6101b6610242366004611d3e565b610838565b6101b6610255366004611c8b565b6108a2565b6101e96108ef565b6101e96108fe565b6101b661090d565b6101b6610280366004611c53565b610954565b6101e961099e565b6101cb61029b366004611c53565b6109ad565b6101b66102ae366004611c8b565b6109c2565b6101b66102c1366004611e4d565b610a29565b6101b6610a5d565b6101e9610dfd565b6101b66102e4366004611c53565b610e0c565b6102fc6102f7366004611c53565b6110c4565b6040516101d89190611ff0565b6101b661113a565b6101b661031f366004611c53565b61173e565b61032c6117ac565b6040516101d89190612128565b6101e96117b2565b61032c6117c1565b3360009081526001602052604090205460ff166103815760405162461bcd60e51b815260040161037890612096565b60405180910390fd5b6003546040516370a0823160e01b81526001600160a01b039091169060009082906370a08231906103b6903090600401611f1e565b60206040518083038186803b1580156103ce57600080fd5b505afa1580156103e2573d6000803e3d6000fd5b505050506040513d601f19601f820116820180604052508101906104069190611e65565b9050620f424081101561041a575050610768565b60006002836001600160a01b03166370a08231306040518263ffffffff1660e01b815260040161044a9190611f1e565b60206040518083038186803b15801561046257600080fd5b505afa158015610476573d6000803e3d6000fd5b505050506040513d601f19601f8201168201806040525081019061049a9190611e65565b6104a49190612249565b60055460405163a9059cbb60e01b81529192506001600160a01b038086169263a9059cbb926104d99216908590600401611fd7565b602060405180830381600087803b1580156104f357600080fd5b505af1158015610507573d6000803e3d6000fd5b505050506040513d601f19601f8201168201806040525081019061052b9190611e31565b50604080516002808252606082018352600092602083019080368337505060035482519293506001600160a01b03169183915060009061057b57634e487b7160e01b600052603260045260246000fd5b6001600160a01b0392831660209182029290920101526004548251911690829060019081106105ba57634e487b7160e01b600052603260045260246000fd5b6001600160a01b03928316602091820292909201015260035460085460405163095ea7b360e01b81529183169263095ea7b3926105ff92909116908690600401611fd7565b602060405180830381600087803b15801561061957600080fd5b505af115801561062d573d6000803e3d6000fd5b505050506040513d601f19601f820116820180604052508101906106519190611e31565b506008546007546000916001600160a01b03908116916338ed1739918691859187911661068042612710612231565b6040518663ffffffff1660e01b81526004016106a0959493929190612160565b600060405180830381600087803b1580156106ba57600080fd5b505af11580156106ce573d6000803e3d6000fd5b505050506040513d6000823e601f3d908101601f191682016040526106f69190810190611da1565b90507f97fb1b8cb7545835f836c006e4ce8a037638507b9977b768299fdcb829882ddb8484856000808660018151811061074057634e487b7160e01b600052603260045260246000fd5b602002602001015160405161075a969594939291906121bb565b60405180910390a150505050505b565b6000610777600a836117d2565b92915050565b6005546001600160a01b031681565b6107946117ee565b6001600160a01b03166107a56107e4565b6001600160a01b0316146107cb5760405162461bcd60e51b8152600401610378906120f3565b61076860006117f2565b6004546001600160a01b031681565b6000546001600160a01b031690565b6002602052816000526040600020818154811061080f57600080fd5b6000918252602090912001546001600160a01b03169150829050565b6000610777600a83611842565b6108406117ee565b6001600160a01b03166108516107e4565b6001600160a01b0316146108775760405162461bcd60e51b8152600401610378906120f3565b6001600160a01b03919091166000908152600160205260409020805460ff1916911515919091179055565b6108aa6117ee565b6001600160a01b03166108bb6107e4565b6001600160a01b0316146108e15760405162461bcd60e51b8152600401610378906120f3565b6108eb828261184e565b5050565b6007546001600160a01b031681565b6009546001600160a01b031681565b3360009081526001602052604090205460ff1661093c5760405162461bcd60e51b815260040161037890612096565b61094461113a565b61094c610a5d565b610768610349565b61095c6117ee565b6001600160a01b031661096d6107e4565b6001600160a01b0316146109935760405162461bcd60e51b8152600401610378906120f3565b6108eb600a826119c8565b6008546001600160a01b031681565b60016020526000908152604090205460ff1681565b6109ca6117ee565b6001600160a01b03166109db6107e4565b6001600160a01b031614610a015760405162461bcd60e51b8152600401610378906120f3565b610a0c600a836117d2565b156108e15760405162461bcd60e51b8152600401610378906120bc565b3360009081526001602052604090205460ff16610a585760405162461bcd60e51b815260040161037890612096565b600c55565b3360009081526001602052604090205460ff16610a8c5760405162461bcd60e51b815260040161037890612096565b6009546040805163574f2ba360e01b815290516000926001600160a01b03169163574f2ba3916004808301926020929190829003018186803b158015610ad157600080fd5b505afa158015610ae5573d6000803e3d6000fd5b505050506040513d601f19601f82011682018060405250810190610b099190611e65565b905060005b818110156108eb57600954604051631e3dd18b60e01b81526000916001600160a01b031690631e3dd18b90610b47908590600401612128565b60206040518083038186803b158015610b5f57600080fd5b505afa158015610b73573d6000803e3d6000fd5b505050506040513d601f19601f82011682018060405250810190610b979190611c6f565b905060008190506000826001600160a01b0316630dfe16816040518163ffffffff1660e01b815260040160206040518083038186803b158015610bd957600080fd5b505afa158015610bed573d6000803e3d6000fd5b505050506040513d601f19601f82011682018060405250810190610c119190611c6f565b90506000836001600160a01b031663d21220a76040518163ffffffff1660e01b815260040160206040518083038186803b158015610c4e57600080fd5b505afa158015610c62573d6000803e3d6000fd5b505050506040513d601f19601f82011682018060405250810190610c869190611c6f565b90506000826001600160a01b03166370a08231306040518263ffffffff1660e01b8152600401610cb69190611f1e565b60206040518083038186803b158015610cce57600080fd5b505afa158015610ce2573d6000803e3d6000fd5b505050506040513d601f19601f82011682018060405250810190610d069190611e65565b90506000826001600160a01b03166370a08231306040518263ffffffff1660e01b8152600401610d369190611f1e565b60206040518083038186803b158015610d4e57600080fd5b505afa158015610d62573d6000803e3d6000fd5b505050506040513d601f19601f82011682018060405250810190610d869190611e65565b9050620f424082118015610da857506003546001600160a01b03858116911614155b15610db657610db684610e0c565b620f424081118015610dd657506003546001600160a01b03848116911614155b15610de457610de483610e0c565b5050505050508080610df590612280565b915050610b0e565b6003546001600160a01b031681565b3360009081526001602052604090205460ff16610e3b5760405162461bcd60e51b815260040161037890612096565b60035481906001600160a01b0380831691161415610e5957506110c1565b610e64600a826117d2565b610e6e57506110c1565b6040516370a0823160e01b81526000906001600160a01b038416906370a0823190610e9d903090600401611f1e565b60206040518083038186803b158015610eb557600080fd5b505afa158015610ec9573d6000803e3d6000fd5b505050506040513d601f19601f82011682018060405250810190610eed9190611e65565b6001600160a01b0383166000908152600260205260408120805492935091610f2557634e487b7160e01b600052603260045260246000fd5b60009182526020909120015460085460405163095ea7b360e01b81526001600160a01b039283169263095ea7b392610f64929116908590600401611fd7565b602060405180830381600087803b158015610f7e57600080fd5b505af1158015610f92573d6000803e3d6000fd5b505050506040513d601f19601f82011682018060405250810190610fb69190611e31565b506008546001600160a01b038381166000908152600260205260408120909291909116906338ed1739908490849030610ff142612710612231565b6040518663ffffffff1660e01b815260040161101195949392919061219c565b600060405180830381600087803b15801561102b57600080fd5b505af115801561103f573d6000803e3d6000fd5b505050506040513d6000823e601f3d908101601f191682016040526110679190810190611da1565b6001600160a01b0384166000908152600260205260409081902090519192507fcc3d9cd866fd87bfa5181f9d342eb794966d82d82d093c1738daf88b3ad50b23916110b59186918590611f72565b60405180910390a15050505b50565b6001600160a01b03811660009081526002602090815260409182902080548351818402810184019094528084526060939283018282801561112e57602002820191906000526020600020905b81546001600160a01b03168152600190910190602001808311611110575b50505050509050919050565b3360009081526001602052604090205460ff166111695760405162461bcd60e51b815260040161037890612096565b6009546040805163574f2ba360e01b815290516000926001600160a01b03169163574f2ba3916004808301926020929190829003018186803b1580156111ae57600080fd5b505afa1580156111c2573d6000803e3d6000fd5b505050506040513d601f19601f820116820180604052508101906111e69190611e65565b905060005b818110156108eb57600954604051631e3dd18b60e01b81526000916001600160a01b031690631e3dd18b90611224908590600401612128565b60206040518083038186803b15801561123c57600080fd5b505afa158015611250573d6000803e3d6000fd5b505050506040513d601f19601f820116820180604052508101906112749190611c6f565b90506000816001600160a01b03166370a08231306040518263ffffffff1660e01b81526004016112a49190611f1e565b60206040518083038186803b1580156112bc57600080fd5b505afa1580156112d0573d6000803e3d6000fd5b505050506040513d601f19601f820116820180604052508101906112f49190611e65565b9050600c54811161130657505061172c565b6000826001600160a01b0316630dfe16816040518163ffffffff1660e01b815260040160206040518083038186803b15801561134157600080fd5b505afa158015611355573d6000803e3d6000fd5b505050506040513d601f19601f820116820180604052508101906113799190611c6f565b90506000836001600160a01b031663d21220a76040518163ffffffff1660e01b815260040160206040518083038186803b1580156113b657600080fd5b505afa1580156113ca573d6000803e3d6000fd5b505050506040513d601f19601f820116820180604052508101906113ee9190611c6f565b60085460405163095ea7b360e01b81529192506001600160a01b038087169263095ea7b3926114239216908790600401611fd7565b602060405180830381600087803b15801561143d57600080fd5b505af1158015611451573d6000803e3d6000fd5b505050506040513d601f19601f820116820180604052508101906114759190611e31565b50600080600860009054906101000a90046001600160a01b03166001600160a01b031663baa2abde876001600160a01b031663d21220a76040518163ffffffff1660e01b815260040160206040518083038186803b1580156114d657600080fd5b505afa1580156114ea573d6000803e3d6000fd5b505050506040513d601f19601f8201168201806040525081019061150e9190611c6f565b886001600160a01b0316630dfe16816040518163ffffffff1660e01b815260040160206040518083038186803b15801561154757600080fd5b505afa15801561155b573d6000803e3d6000fd5b505050506040513d601f19601f8201168201806040525081019061157f9190611c6f565b886000803061158f42603c612231565b6040518863ffffffff1660e01b81526004016115b19796959493929190611f32565b6040805180830381600087803b1580156115ca57600080fd5b505af11580156115de573d6000803e3d6000fd5b505050506040513d601f19601f820116820180604052508101906116029190611e7d565b915091507f2b3fc929cf367b0b3c63f1e4147901bacd35064a5a0f6cfc72d42d92feb492c287876001600160a01b0316630dfe16816040518163ffffffff1660e01b815260040160206040518083038186803b15801561166157600080fd5b505afa158015611675573d6000803e3d6000fd5b505050506040513d601f19601f820116820180604052508101906116999190611c6f565b886001600160a01b031663d21220a76040518163ffffffff1660e01b815260040160206040518083038186803b1580156116d257600080fd5b505afa1580156116e6573d6000803e3d6000fd5b505050506040513d601f19601f8201168201806040525081019061170a9190611c6f565b858560405161171d959493929190612131565b60405180910390a15050505050505b8061173681612280565b9150506111eb565b6117466117ee565b6001600160a01b03166117576107e4565b6001600160a01b03161461177d5760405162461bcd60e51b8152600401610378906120f3565b6001600160a01b0381166117a35760405162461bcd60e51b815260040161037890612050565b6110c1816117f2565b600c5481565b6006546001600160a01b031681565b60006117cd600a6119dd565b905090565b60006117e7836001600160a01b0384166119e8565b9392505050565b3390565b600080546001600160a01b038381166001600160a01b0319831681178455604051919092169283917f8be0079c531659141344cd1fd0a4f28419497f9722a3daafe3b4186f6b6457e09190a35050565b60006117e78383611a00565b60005b81518110156119105781818151811061187a57634e487b7160e01b600052603260045260246000fd5b60200260200101516001600160a01b03166370a08231306040518263ffffffff1660e01b81526004016118ad9190611f1e565b60206040518083038186803b1580156118c557600080fd5b505afa1580156118d9573d6000803e3d6000fd5b505050506040513d601f19601f820116820180604052508101906118fd9190611e65565b508061190881612280565b915050611851565b506040516370a0823160e01b81526001600160a01b038316906370a082319061193d903090600401611f1e565b60206040518083038186803b15801561195557600080fd5b505afa158015611969573d6000803e3d6000fd5b505050506040513d601f19601f8201168201806040525081019061198d9190611e65565b50611999600a83611a59565b506001600160a01b038216600090815260026020908152604090912082516119c392840190611bd9565b505050565b60006117e7836001600160a01b038416611a6e565b600061077782611b8b565b60009081526001919091016020526040902054151590565b81546000908210611a235760405162461bcd60e51b81526004016103789061200e565b826000018281548110611a4657634e487b7160e01b600052603260045260246000fd5b9060005260206000200154905092915050565b60006117e7836001600160a01b038416611b8f565b60008181526001830160205260408120548015611b81576000611a92600183612269565b8554909150600090611aa690600190612269565b90506000866000018281548110611acd57634e487b7160e01b600052603260045260246000fd5b9060005260206000200154905080876000018481548110611afe57634e487b7160e01b600052603260045260246000fd5b600091825260209091200155611b15836001612231565b60008281526001890160205260409020558654879080611b4557634e487b7160e01b600052603160045260246000fd5b60019003818190600052602060002001600090559055866001016000878152602001908152602001600020600090556001945050505050610777565b6000915050610777565b5490565b6000611b9b83836119e8565b611bd157508154600181810184556000848152602080822090930184905584548482528286019093526040902091909155610777565b506000610777565b828054828255906000526020600020908101928215611c2e579160200282015b82811115611c2e57825182546001600160a01b0319166001600160a01b03909116178255602090920191600190910190611bf9565b50611c3a929150611c3e565b5090565b5b80821115611c3a5760008155600101611c3f565b600060208284031215611c64578081fd5b81356117e7816122c7565b600060208284031215611c80578081fd5b81516117e7816122c7565b60008060408385031215611c9d578081fd5b8235611ca8816122c7565b915060208381013567ffffffffffffffff811115611cc4578283fd5b8401601f81018613611cd4578283fd5b8035611ce7611ce28261220d565b6121e3565b81815283810190838501858402850186018a1015611d03578687fd5b8694505b83851015611d2e578035611d1a816122c7565b835260019490940193918501918501611d07565b5080955050505050509250929050565b60008060408385031215611d50578182fd5b8235611d5b816122c7565b91506020830135611d6b816122dc565b809150509250929050565b60008060408385031215611d88578182fd5b8235611d93816122c7565b946020939093013593505050565b60006020808385031215611db3578182fd5b825167ffffffffffffffff811115611dc9578283fd5b8301601f81018513611dd9578283fd5b8051611de7611ce28261220d565b8181528381019083850185840285018601891015611e03578687fd5b8694505b83851015611e25578051835260019490940193918501918501611e07565b50979650505050505050565b600060208284031215611e42578081fd5b81516117e7816122dc565b600060208284031215611e5e578081fd5b5035919050565b600060208284031215611e76578081fd5b5051919050565b60008060408385031215611e8f578182fd5b505080516020909101519092909150565b6000815180845260208085019450808401835b83811015611ed85781516001600160a01b031687529582019590820190600101611eb3565b509495945050505050565b6000815480845260208085019450838352808320835b83811015611ed85781546001600160a01b031687529582019560019182019101611ef9565b6001600160a01b0391909116815260200190565b6001600160a01b039788168152958716602087015260408601949094526060850192909252608084015290921660a082015260c081019190915260e00190565b6001600160a01b038416815260606020808301829052600091611f9790840186611ee3565b8381036040850152845180825282860191830190845b81811015611fc957835183529284019291840191600101611fad565b509098975050505050505050565b6001600160a01b03929092168252602082015260400190565b6000602082526117e76020830184611ea0565b901515815260200190565b60208082526022908201527f456e756d657261626c655365743a20696e646578206f7574206f6620626f756e604082015261647360f01b606082015260800190565b60208082526026908201527f4f776e61626c653a206e6577206f776e657220697320746865207a65726f206160408201526564647265737360d01b606082015260800190565b6020808252600c908201526b3737ba10309031b0b63632b960a11b604082015260600190565b6020808252601b908201527f546f6b656e20697320616c726561647920726567697374657265640000000000604082015260600190565b6020808252818101527f4f776e61626c653a2063616c6c6572206973206e6f7420746865206f776e6572604082015260600190565b90815260200190565b9485526001600160a01b0393841660208601529190921660408401526060830191909152608082015260a00190565b600086825285602083015260a0604083015261217f60a0830186611ea0565b6001600160a01b0394909416606083015250608001529392505050565b600086825285602083015260a0604083015261217f60a0830186611ee3565b958652602086019490945260408501929092526060840152608083015260a082015260c00190565b60405181810167ffffffffffffffff81118282101715612205576122056122b1565b604052919050565b600067ffffffffffffffff821115612227576122276122b1565b5060209081020190565b600082198211156122445761224461229b565b500190565b60008261226457634e487b7160e01b81526012600452602481fd5b500490565b60008282101561227b5761227b61229b565b500390565b60006000198214156122945761229461229b565b5060010190565b634e487b7160e01b600052601160045260246000fd5b634e487b7160e01b600052604160045260246000fd5b6001600160a01b03811681146110c157600080fd5b80151581146110c157600080fdfea2646970667358221220207f2be38074591d70da5d91ab2a79c65fe2d5a03c1c21847d2c90c2f0a1eaba64736f6c63430008000033",
  "linkReferences": {},
  "deployedLinkReferences": {}
}